:100000000C94B3010C94E4010C94E4010C94E4010D
:100010000C94E4010C94E4010C94E4010C94E401CC
:100020000C94E4010C9487150C9487150C94871597
:100030000C94E4010C94E4010C94E4010C94E401AC
:100040000C94E4010C943F170C94E4010C94E4012B
:100050000C94E4010C94E4010C94E4010C943D151F
:100060000C94E4010C9413150C94E9140C94E40121
:100070000C94E4010C94E4010C94E4010C94E4016C
:100080000C9411170C94E4010C94E4010C94E40119
:100090000C94BF140C9495140C94E4010C949115D9
:1000A0000C94E4010C94E4010C94E3160C94E40128
:1000B0000C94E4010C94E4010C94E4010C94B51646
:1000C0000C94E4010C94E4010C94E4010C946B1482
:1000D0000C9441140C94E4010C9417140C94ED133B
:1000E0000C94E4010C94DA0C0C945B040C943A0329
:1000F0000C942C030C949D0A0C9465040C94980F9A
:100100000C94AE080C9473040C94FA010C94D00C6B
:100110000C94780D0C9452070C94950B0C943509A3
:100120000C940E020C94A20C0C9490030C942E02CE
:100130000C94840C0C9422020C94D2080C94DD03D1
:100140000C94BC020C94B40C0C94110D0C94600F24
:100150000C94FD0C0C94200D0C94A80E0C946D17AF
:100160000C9455040C947B040C94E90C0C94F30C43
:100170000C9409030C94F0010C9485110C94AF08B5
:100180000C9452040C9477040C944A040C941803B5
:100190000C941B0D0C945F040C94C60C0C94CA0AAE
:1001A0000C94BC0C0C948E0C0C9440040C94070D15
:1001B0000C9446130C946C0F0C9418020C94E601EA
:1001C0000C9423020C9481040C94430F0C94B008FB
:1001D0000C940E130C9404020C9485040C940410DB
:1001E0000C948C120C9469040C94C3020C94540F5C
:1001F0000C9446040C944E040C94810F0C94F50F4F
:100200000C94AB110C94E90F0C94DC130C946D045A
:100210000C949B130C9480040C94C4110C94AD08A2
:100220000C9406090C94AC0C0C94BF080C94980C1C
:100230000C94D9080C9424130C94890C0C94C812B7
:100240000C94B20F00002100240027002A002D008A
:100250003000330001010000040107010A01000021
:100260002200250028002B002E003100340002015E
:100270000000050108010B010000200023002600FA
:1002800029002C002F0032000001000003010601AC
:10029000090105050505070508080808020202020C
:1002A0000A0A080804040404010101010101010112
:1002B0000303030303030303040707070C0C0C0CDD
:1002C0000C0C0C0C020202020606060606060606C6
:1002D0000B0B0B0B0B0B0B0B010210202008081053
:1002E00020401020408002010201080402010102A6
:1002F000040810204080804020100804020180047F
:1003000002018040201008040201080402010102D9
:1003100004081020408001020408102040800000E2
:100320000A0B02090C0D0E0807030401000000006F
:1003300000000000000000000000000000000000BD
:10034000000000000000000000001211100000007A
:10035000000000000000000000000000000000009D
:10036000000000006D1711241FBECFEFD1E2DEBFE9
:10037000CDBF00E00CBF13E0A0E0B2E0E8E8F2E49B
:1003800000E00BBF02C007900D92A635B107D9F768
:100390002AE0A6E5B3E001C01D92AF32B207E1F753
:1003A00011E0C3EBD1E000E006C021970109802FE6
:1003B000FE010E940620C23BD10780E00807A9F792
:1003C0000E9435190C9442210C940000862FE09174
:1003D0009A04F0919B04309711F0BA011994089592
:1003E000862FE0919804F0919904309711F0BA01AA
:1003F00019940895862FE0919604F0919704309710
:1004000011F0BA0119940895862FE0919404F091A7
:100410009504309711F0BA0119940895862FE09150
:100420009204F0919304309711F0BA011994089551
:10043000862FE0919004F0919104309711F0BA0169
:10044000199408950895862F642FE0919C04F091EB
:100450009D04309711F0A90119940895E0919E042C
:10046000F0919F04309709F019940895CF93DF938A
:10047000FC01A081B181109701F1EC01ED91FC919B
:1004800011970190F081E02D69EFCD0119958881D8
:100490009981DC01ED91FC910190F081E02D62E009
:1004A000199588819981DC01ED91FC910190F08191
:1004B000E02D65E0DF91CF911994DF91CF91089500
:1004C000A0912608B0912708ED91FC911197019019
:1004D000F081E02D682FCD0119941F93CF93DF9306
:1004E000182FEB018091ED079091EE0768177907BF
:1004F00060F48091EB079091EC07C80FD91F188327
:1005000080E0DF91CF911F910895E0911A08F0915A
:100510001B08309711F481E0F4CF81E08093EA0763
:10052000809106089091070819958091ED079091A8
:10053000EE07C817D90778F7DCCFCF93DF93EC012C
:10054000FB0130E020E0C901880F991F8C179D073F
:1005500078F44081DB014D93BD011197918197950E
:1005600099279795942B9C932F5F3F4F3296EBCF13
:10057000C901DF91CF910895009721F0805C9F4FD2
:100580000C9436020895AF92BF92CF92DF92EF9211
:10059000FF920F931F93CF93DF936C017B018B012D
:1005A000040F151FEB015E01AE18BF08C017D1077D
:1005B00059F06991D601ED91FC910190F081E02D07
:1005C000C6011995892B79F7C501DF91CF911F914C
:1005D0000F91FF90EF90DF90CF90BF90AF90089574
:1005E000FC01A089B1898C91A689B78982FD0FC0D1
:1005F0009C91818D8F5F8F73228D821749F0A18D21
:10060000AE0FBF2FB11D5D969C93818F08958C9185
:100610000895FC01538D448D252F30E0842F90E008
:10062000821B930B541710F0CF96089501970895ED
:10063000FC01918D828D981761F0A28DAE0FBF2FB6
:10064000B11D5D968C91928D9F5F9F73928F90E00C
:1006500008958FEF9FEF0895FC01918D828D98177B
:1006600031F0828DE80FF11D858D90E008958FEFB8
:100670009FEF0895FC01918D228D892F90E0805C81
:100680009F4F821B91098F739927089584E395E00A
:100690000E943A0321E0892B09F420E0822F08957B
:1006A00081ED95E00E943A0321E0892B09F420E0D6
:1006B000822F08958EE696E00E943A0321E0892B6E
:1006C00009F420E0822F08958BE097E00E943A031E
:1006D00021E0892B09F420E0822F0895FC01A48DEC
:1006E000A80FB92FB11DA35ABF4F2C91848D90E054
:1006F00001968F739927848FA689B7892C93A08937
:10070000B1898C91837080648C93938D848D9813C0
:1007100006C00288F389E02D80818F7D8083089553
:10072000EF92FF920F931F93CF93DF93EC0181E041
:10073000888F9B8D8C8D98131AC0E889F9898081E8
:1007400085FF15C09FB7F894EE89FF896083E8891B
:10075000F98980818370806480839FBF81E090E00D
:10076000DF91CF911F910F91FF90EF900895F62E9A
:100770000B8D10E00F5F1F4F0F731127E02E8C8D34
:100780008E110CC00FB607FCFACFE889F989808179
:1007900085FFF5CFCE010E946E03F1CFEB8DEC0FFC
:1007A000FD2FF11DE35AFF4FF0829FB7F8940B8F96
:1007B000EA89FB8980818062CFCFCF93DF93EC0100
:1007C000888D8823B9F0AA89BB89E889F9898C9139
:1007D00085FD03C0808186FD0DC00FB607FCF7CFF5
:1007E0008C9185FFF2CF808185FFEDCFCE010E94F5
:1007F0006E03E9CFDF91CF91089580E090E0892BDF
:1008000029F00E94640381110E94000080E090E0C2
:10081000892B29F00E945A0381110E94000080E078
:1008200090E0892B29F00E94500381110E94000062
:1008300080E090E0892B29F00E94460381110C94FE
:10084000000008958150823108F05AC0E82FF0E08E
:100850008827E25DFB4F8F4F0C9406204E04520414
:10086000400446044A04800455045B045F046504A4
:1008700069046D047304770480047B048104850497
:10088000809180008F778093800008958091800010
:100890008F7DF9CF80918000877FF5CF84B58F77EA
:1008A00084BD089584B58F7DFBCF8091B0008F7794
:1008B0008093B00008958091B0008F7DF9CF809132
:1008C00090008F77809390000895809190008F7DA5
:1008D000F9CF80919000877FF5CF8091A0008F772E
:1008E0008093A00008958091A0008F7DF9CF809122
:1008F000A000877FF5CF809120018F778093200122
:100900000895809120018F7DF9CF80912001877F0C
:10091000F5CFCF93DF93282F30E0F901E25EFC4F53
:100920008491F901E852FD4FD491F901EE56FD4F43
:10093000C491CC23A1F081110E942204EC2FF0E09D
:10094000EE0FFF1FE858FD4FA591B491EC91ED23F8
:1009500081E090E009F480E0DF91CF91089580E09C
:1009600090E0FACF1F93CF93DF93282F30E0F90167
:10097000E25EFC4F8491F901E852FD4FD491F901F8
:10098000EE56FD4FC491CC23A9F0162F81110E9481
:100990002204EC2FF0E0EE0FFF1FE25AFD4FA5916D
:1009A000B4918FB7F894EC91111108C0D095DE2363
:1009B000DC938FBFDF91CF911F910895DE2BF8CF8D
:1009C000CF93DF9390E0FC01E852FD4F24918E56C7
:1009D0009D4FFC0184918823C9F090E0880F991FF6
:1009E000FC01EC5BFD4FA591B491FC01E25AFD4F77
:1009F000C591D49161110DC09FB7F8948C91209549
:100A000082238C938881282328839FBFDF91CF91F5
:100A10000895623051F49FB7F8943C91822F8095ED
:100A200083238C93E8812E2BEFCF8FB7F894EC9132
:100A30002E2B2C938FBFEACF863308F0865320915C
:100A40007B00982F9870277F922B90937B00877064
:100A5000806480937C0080917A00806480937A0027
:100A600080917A0086FDFCCF80917800909179008A
:100A700008953FB7F89480918C0490918D04A091D3
:100A80008E04B0918F0426B5A89B05C02F3F19F0A6
:100A90000196A11DB11D3FBFBA2FA92F982F8827FE
:100AA000BC01CD01620F711D811D911D42E0660FD9
:100AB000771F881F991F4A95D1F708958F929F92AB
:100AC000AF92BF92CF92DF92EF92FF926B017C01C7
:100AD0000E9439054B015C01C114D104E104F10409
:100AE000B9F00E943905681979098A099B09683E9D
:100AF00073408105910580F321E0C21AD108E10815
:100B0000F10888EE880E83E0981EA11CB11CE4CF8A
:100B1000FF90EF90DF90CF90BF90AF909F908F901D
:100B200008955F926F927F928F929F92AF92BF9241
:100B3000CF92DF92EF92FF920F931F93CF93DF93A9
:100B40005C016901DA015C90232B19F4CC24CA946E
:100B5000DC2C8A013A01660E771ED0E0C0E0F12C51
:100B6000E12C87E0882E912CF50180819181D801BC
:100B70006C910C2E01C0660F0A94EAF765296F7715
:100B8000DC01ED91FC910190F081E02D1995BFEF12
:100B9000EB1AFB0AF801608170E0C4018C1B9D0B0D
:100BA00002C0759567958A95E2F7562E2196C73053
:100BB000D10558F1CE14DF0441F1D5018D919C91FE
:100BC000652D6F77DC01ED91FC910190F081E02DB6
:100BD0001995BFEFEB1AFB0A551C5524551C279796
:100BE000E6CFEC14FD0408F4BFCFDF91CF911F9145
:100BF0000F91FF90EF90DF90CF90BF90AF909F90BC
:100C00008F907F906F905F9008950F5F1F4F6016D9
:100C1000710639F7209749F3EC14FD0430F7F5011C
:100C20008081918161E070E001C0660FCA95EAF7AA
:100C300061506521DC01ED91FC910190F081E02D86
:100C4000DF91CF911F910F91FF90EF90DF90CF90A8
:100C5000BF90AF909F908F907F906F905F9019940E
:100C60001F93CF93DF931F921F92CDB7DEB7182F3C
:100C70007A8369838091E8079091E9070097C9F02A
:100C8000DC01ED91FC910190F081E02D1031B8F480
:100C900061157044A0F4612F606E199522E030E078
:100CA000AE014F5F5F4F62E070E088EE97E00E9418
:100CB00091050F900F90DF91CF911F91089560EFF4
:100CC00019958091E8079091E907DC01ED91FC917D
:100CD0000190F081E02D6FE619958091E8079091E1
:100CE000E907DC01ED91FC910190F081E02D612F8D
:100CF000199522E030E0AE014F5F5F4F62E070E097
:100D000088EE97E00E9491058091E8079091E907AD
:100D1000DC01ED91FC910190F081E02D67EF1995D8
:100D2000C8CFEF92FF920F931F93CF93DF93C82FFB
:100D30008091E8079091E9070097C9F17A018B014A
:100D4000DC01ED91FC910190F081E02D60EF1995AF
:100D50008091E8079091E907DC01ED91FC91019009
:100D6000F081E02D6C2F1995E7010E0D1F1DC017A6
:100D7000D10759F030E020E0AE0161E070E088EE8C
:100D800097E00E9491052196F2CF8091E80790911B
:100D9000E907DC01ED91FC910190F081E02D67EF16
:100DA000DF91CF911F910F91FF90EF901994DF91F8
:100DB000CF911F910F91FF90EF900895CF92DF9206
:100DC000EF92FF920F931F93CF93DF93FC01E058B4
:100DD000FF4FE080EE2009F45CC0EC01C05CDF4F07
:100DE000A881B981109709F454C0FC01EF57FF4F57
:100DF000C080D180F60111810081ED91FC911197A5
:100E00000190F081E02D60EFCD01199588819981E5
:100E1000DC01ED91FC910190F081E02D69E71995DD
:100E200088819981DC01ED91FC910190F081E02DA8
:100E3000602F199588819981DC01ED91FC910190D9
:100E4000F081E02D612F1995F12C01E010E00F5F8A
:100E50001F4FE016F10659F030E020E0A601400FE8
:100E6000511F61E070E0CE010E949105F0CF8881B2
:100E70009981DC01ED91FC910190F081E02D67EF0B
:100E8000DF91CF911F910F91FF90EF90DF90CF9066
:100E90001994DF91CF911F910F91FF90EF90DF9008
:100EA000CF900895009711F00C94DE0608952091DC
:100EB0006404260F3327331F21323105ECF42091CF
:100EC0000A05FC0190E080E0243069F082E008959A
:100ED000A09164042191AC014E5B5B4FA40FB52F30
:100EE000B11D2C930196861798F380916404680FC6
:100EF0006093640480E0089581E0089510920A05EB
:100F000081E0809309051092E40461E084E10E948D
:100F1000B20461E085E10E94B204E9EBF0E0808177
:100F20008E7F808380818D7F808388E48093B8006A
:100F300085E48093BC000895CF93DF9391E0909374
:100F400041048823B9F0C091B800D091BA008091D3
:100F5000BC008A7B8093BC0060E084E10E94B20404
:100F600060E085E10E94B2040E947E07D093BA003F
:100F7000C093B800DF91CF9108958F929F92AF9266
:100F8000BF92CF92DF92EF92FF920F931F93CF9376
:100F9000DF93D0913305D13208F0D7C0182FC0911C
:100FA00032050E9439056B017C0180910A0581118F
:100FB0006BC082E080930A05109309058FEF809340
:100FC000080510920705D0930605A2E1B5E0E6EE0C
:100FD000F4E080E0D81391C01092E5048091E5041C
:100FE000CC0FC82BC093E5048091E404813009F054
:100FF00088C01092E4040E9439056B017C01809145
:10100000E5048093BB0080910C0590910D05A091A3
:101010000E05B0910F05892B8A2B8B2BA1F00E9416
:10102000390500910C0510910D0520910E053091A8
:101030000F056C197D098E099F09061717072807E8
:10104000390708F442C08091BC0083FDD8CF85ECFD
:101050008093BC000E9439056B017C0180910A05D8
:10106000823009F450C0809108058F3F09F46FC0A9
:1010700080910805803209F46CC0809108058033A6
:1010800009F469C084E026C080910C0590910D059B
:10109000A0910E05B0910F05892B8A2B8B2B09F49B
:1010A00084CF0E94390580900C0590900D05A0908A
:1010B0000E05B0900F056C197D098E099F098616E3
:1010C0009706A806B90608F070CF80910B050E941C
:1010D0009C0785E0109211051092330510921005BF
:1010E000DF91CF911F910F91FF90EF90DF90CF9004
:1010F000BF90AF909F908F9008959D9191938F5F37
:1011000069CF85EEA5CF80910C0590910D05A0913A
:101110000E05B0910F05892B8A2B8B2B09F49ECFDE
:101120000E94390500910C0510910D0520910E05C6
:1011300030910F056C197D098E099F090617170755
:101140002807390708F08ACFC0CF81E0C3CF80E0FD
:10115000C1CF82E0BFCF83E0BDCF08950895089549
:10116000E091400480913F04E81730F4F0E0E15E44
:10117000FB4F808190E008958FEF9FEF089590914D
:10118000400480913F042FEF3FEF981748F4E92F78
:10119000F0E0E15EFB4F208130E09F5F90934004E0
:1011A000C901089580913F0490914004891B990BD7
:1011B0000895CF92DF92EF92FF920F931F93CF93F8
:1011C000DF937C01CB018A0120911005222389F055
:1011D000EB016B01C40ED51ECC15DD0569F06991DC
:1011E000D701ED91FC910190F081E02DC701199597
:1011F000F3CF642F0E945707C801DF91CF911F9151
:101200000F91FF90EF90DF90CF900895CF93DF93F1
:101210001F92CDB7DEB76983209110052223F9F024
:1012200020913305203258F021E030E0FC01338377
:10123000228390E080E00F90DF91CF91089580911C
:101240001105E82FF0E0EE5EFA4F998190838F5FF1
:10125000809311058093330581E090E0ECCF61E04D
:10126000CE0101960E945707F7CF90E080E00895E5
:10127000DF92EF92FF920F931F93CF93DF93EC01D6
:10128000D62E7A0189018881803308F067C061E039
:101290008D2D0E94E0048881282F30E0F901EE0FA7
:1012A000FF1FE20FF31FE65FF64F9D2D9F736081D6
:1012B000607C692B608320E232E02E193F0937FF02
:1012C00002C02D5F3F4F359527953595279529838A
:1012D00020E639E0201B310B37FF02C02D5F3F4F66
:1012E00035952795359527952A832CE0622F0E9406
:1012F000FA1F829FB001112430E020E0AB01420FC1
:10130000531FFA01EE0FFF1FE40FF51FE65FF64FC4
:10131000908196FD16C02F5F3F4F2C30310571F73D
:10132000813029F51092800082E080938100109234
:10133000850010928400B19A80916F008260809342
:101340006F00E8818E2F90E0FC01EE0FFF1FE80F89
:10135000F91FE65FF64F8081806480838881DF918A
:10136000CF911F910F91FF90EF90DF900895823001
:1013700061F4109290008093910010929500109269
:10138000940088BB80937100DCCF833069F41092A5
:10139000A00082E08093A1001092A5001092A4000A
:1013A00089BB80937200CDCF8111CBCF10922001E9
:1013B00082E08093210110922501109224018ABBC2
:1013C00080937300BECFAF92BF92CF92DF92EF9225
:1013D000FF920F931F93CF93DF936B017A01EC0180
:1013E000C55EDB4F28813CE0389F8001399F100D9E
:1013F0001124A0909A09B12C27FF1FC0FB01118274
:10140000108288818F5F888388819801280F311D21
:1014100087FD3A95F6012A153B051CF488818C302E
:10142000C4F180819181049680349C4908F473C092
:10143000F60180819181049670C088819801280FFF
:10144000311D87FD3A952A153B05DCF68881A801F8
:10145000480F511D87FD5A95FA01EE0FFF1FE40F4B
:10146000F51FE65FF64F808186FFCBCF8881F801BC
:10147000E80FF11D87FDFA95CF01EE0FFF1FE80F72
:10148000F91FE65FF64F808160E08F730E94B2041F
:10149000B8CF808191812881A801420F511D27FD7D
:1014A0005A959A01FA01EE0FFF1FE20FF31FE65F54
:1014B000F64F21813281820F931FF7019183808340
:1014C00088819801280F311D87FD3A95F901EE0FAB
:1014D000FF1FE20FF31FE65FF64F808186FF22C0F9
:1014E0008881080F111D87FD1A95F801EE0FFF1F67
:1014F000E00FF11FE65FF64F808161E08F73DF91AF
:10150000CF911F910F91FF90EF90DF90CF90BF9000
:10151000AF900C94B20480E49CE9F701918380833E
:101520008FEF8883DF91CF911F910F91FF90EF9004
:10153000DF90CF90BF90AF900895CF938031B0F4FB
:1015400021E030E0082E02C0220F331F0A94E2F798
:101550004091DE045091DF04672B51F420953095C3
:10156000242335233093DF042093DE04CF910895A4
:10157000242B352B3093DF042093DE0490911A0442
:101580009111F4CFC82F0E941C05BC018C2FCF9164
:101590000C9430064F925F926F927F928F929F923F
:1015A000AF92BF92CF92DF92EF92FF920F931F9371
:1015B000CF93DF93893008F0A7C08F5FC82FCC0F7F
:1015C000CC0FCC0F4C2EC73410F056E4452ED62F3E
:1015D00038EF532E5C0E852C912CC401880F991F77
:1015E0009C012855384F5901052DD12CC12C10E0F4
:1015F000772473940415C8F58EEF800F8434F8F4C3
:10160000F601E80DF91DE55DF74F90819230B8F4D1
:10161000872D8D2366246394811101C0612C76018E
:10162000EE0CFF1C913089F4172939ECE30EF11C04
:10163000F501EE0DFF1D862D90E091838083770CE0
:101640000F5F8FEFC81AD80AD5CF882371F3F7013F
:10165000E753FF4FEA0DFB1D80819181019729F32C
:1016600062E0802F0E94E004E0CF10FF05C06D2FE4
:101670006170852D0E94B20411FF06C06D2F62704B
:1016800089EF8C0F0E94B20412FF06C06D2F6470A8
:101690008AEF8C0F0E94B20413FF06C06D2F687092
:1016A0008BEF8C0F0E94B20414FF06C06D2F607187
:1016B0008CEF8C0F0E94B20415FF06C06D2F607274
:1016C0008DEF8C0F0E94B20416FF06C06D2F607460
:1016D0008EEF8C0F0E94B20417FF16C06D2F60783A
:1016E0008FEF8C0FDF91CF911F910F91FF90EF90B3
:1016F000DF90CF90BF90AF909F908F907F906F9032
:101700005F904F900C94B204DF91CF911F910F9195
:10171000FF90EF90DF90CF90BF90AF909F908F9011
:101720007F906F905F904F9008958F929F92AF92AD
:10173000BF92CF92DF92EF92FF920F931F93CF93BE
:10174000DF93EB01863408F098C0082F10E0F80111
:10175000E55DF74F9081933009F49CC0943009F017
:101760008CC08250843408F081C0F801E653FC4FED
:10177000C080D12C7601EE0CFF1C4B01603282E060
:1017800078070CF03EC0F701EC0DFD1DE556F64F55
:101790008181A8E88A2E912C881A910887FD93945C
:1017A000880C991C880C991C092C000CAA08BB08F1
:1017B000828128E532E0281B310987FD3395220F0D
:1017C000331F220F331F032E000C440B550B281917
:1017D00039094A095B09DB01653B710514F0A4EB8B
:1017E000B0E0B7FF02C0B0E0A0E00E94C11F24EB50
:1017F00030E040E050E00E94971F820E931EA41E2E
:10180000B51EF701EC0DFD1DE556F64F2081203386
:1018100068F5318188E890E0831B910937FD939545
:10182000880F991F880F991F881699067CF03281BE
:1018300088E592E0831B910937FD9395880F991FE6
:10184000880F991F881699060CF4C4010297880F17
:10185000991F4FB7F89430E0F901EE0FFF1FE20F28
:10186000F31FE65FF64F928381834FBF000F111F76
:10187000F801EF58F74FD183C083DF91CF911F91CB
:101880000F91FF90EF90DF90CF90BF90AF909F901F
:101890008F900895F82E8EEF800F8C3020F084ED1D
:1018A000800F833018F761E08F2D0E94E0042097AD
:1018B00029F460E08F2D0E94B204D8CFCF3FD1052C
:1018C00011F461E0F7CFF801E25EFC4FE491E150E2
:1018D000E23108F0B0C0F0E08827EE58F34F8F4FA8
:1018E0000C940620840C890C8E0C980CA20C1B0DF9
:1018F000AC0CB40CBC0CC60CD00CDA0CE90CF30C20
:101900001B0DFD0C070D110D84B5806884BDC7BD8E
:10191000ADCF84B5806284BDC8BDA8CF8091800062
:10192000806880938000D0938900C09388009ECF08
:1019300080918000806280938000D0938B00C09360
:101940008A0094CF80918000886080938000D0933B
:101950008D00C0938C008ACF8091B0008068809306
:10196000B000C093B30082CF8091B00080628093BA
:10197000B000C093B4007ACF8091900080688093CB
:101980009000D0939900C093980070CF8091900000
:10199000806280939000D0939B00C0939A0066CFA2
:1019A00080919000886080939000D0939D00C093B8
:1019B0009C005CCF8091A00080688093A000809103
:1019C000A0008F7B8093A000D093A900C093A800B3
:1019D0004DCF8091A00080628093A000D093AB0097
:1019E000C093AA0043CF8091A00088608093A0009C
:1019F000D093AD00C093AC0039CF809120018068B6
:101A000080932001D0932901C09328012FCF80918A
:101A10002001806280932001D0932B01C0932A0182
:101A200025CF80912001886080932001D0932D01E3
:101A3000C0932C011BCFC038D1050CF042CF39CF59
:101A40009EEF980F943480F4E82FF0E0DF01A55D5D
:101A5000B74F9C91913041F4EE0FFF1FEF58F74FB5
:101A6000608371830C94B2040895FF920F931F93C7
:101A7000CF93DF931F921F92CDB7DEB7082F10E0F0
:101A8000F801E056FB4F9081F62EF922005F1B4FC4
:101A9000411104C0F80190819F1511F12F2D30E004
:101AA0003A832983A091E807B091E9071097B1F034
:101AB000682F6F706069ED91FC9111970190F08132
:101AC000E02DCD01199522E030E0AE014F5F5F4F70
:101AD00062E070E088EE97E00E949105F801F082E4
:101AE0000F900F90DF91CF911F910F91FF9008956C
:101AF0000F931F93CF93DF93893008F071C0282F85
:101B000030E0F901E755FB4F6083672B09F468C0AB
:101B1000082F20563B4FF9011081D82FDD0FDD0F24
:101B2000DD0F8EEF8D0F843450F4C12FC17010FF84
:101B300007C08D2F0E948904C1E0892B09F4C0E001
:101B40008FEF8D0F843448F411FF07C081E08D0FB3
:101B50000E948904892B09F0C26012FF07C082E04D
:101B60008D0F0E948904892B09F0C46013FF07C000
:101B700083E08D0F0E948904892B09F0C86014FF4F
:101B800007C084E08D0F0E948904892B09F0C06191
:101B900015FF07C085E08D0F0E948904892B09F08D
:101BA000C062D034A1F016FF07C086E08D0F0E94FE
:101BB0008904892B09F0C064DF3349F017FF07C09F
:101BC00087E08D0F0E948904892B09F0C06841E0ED
:101BD0006C2F802FDF91CF911F910F910C94350DB9
:101BE000DF91CF911F910F910895A82FB0E0A653D8
:101BF000BC4F9C91292F30E0F901EE0FFF1FE20F3F
:101C0000F31FE556F64FE0812E2F30E0F901EE0F7D
:101C1000FF1FE20FF31FE65FF64F80818F7B80830B
:101C20008091C803981308C0992319F0915090939C
:101C3000C8038FEF8C9308958823D9F3E091C903EB
:101C4000EF5FE093C903F0E0EB5AFC4F9083F1CFD4
:101C5000FC0101900020E9F73197BF01681B790B67
:101C6000AC0181E70C949106CF93DF93DB01909157
:101C7000C803903378F53091C903682F70E0FB01F9
:101C8000E653FC4F3323E1F0C32FD0E0CB5ADC4FB7
:101C90008881808331503093C903808123E0829F03
:101CA000C00111248556964F1A161B0674F414169B
:101CB00015065CF49A01AD01DF91CF910C943809BF
:101CC00090839F5F9093C803E8CF20E639E040E21D
:101CD00052E0F2CF8DE292E0DF91CF910C94280E8A
:101CE00085ED8093BC0080910C0590910D05A0912D
:101CF0000E05B0910F050796A11DB11D23E0B69505
:101D0000A795979587952A95D1F72091BC0024FD3A
:101D100003C010920A05089540910C0550910D05DD
:101D200060910E0570910F05452B462B472B69F3EB
:101D30000097A105B10541F025E32A95F1F70000D0
:101D40000197A109B109E1CF80910B050C949C0783
:101D50008F929F92BF92CF92DF92EF92FF920F935A
:101D60001F93CF93DF93C82ED12CE601C855D84FCF
:101D7000FE01ED57FF4F90819F3709F4A1C09630C7
:101D800061F490911904992341F06630710529F0AE
:101D9000109219049FEF909300027B01182F0EEF11
:101DA000080F043408F564307105F1F0F601E653CC
:101DB000FC4F80818033C0F490E0FC01EE0FFF1FE8
:101DC000E80FF91FE556F64FE0818E2F90E0FC01F9
:101DD000EE0FFF1FE80FF91FE65FF64F808186FFC9
:101DE00003C0812F0E94F50D5AECB52EB10E8FE085
:101DF0008B1558F061E070E032E0E316F10411F069
:101E000070E060E08B2D0E949D0A0434C8F4E12F3D
:101E1000E695E695E695F0E0E056FB4F2081312F00
:101E2000377081E090E001C0880F3A95EAF7E1143D
:101E3000F10421F03BE0E316F10411F5822B8083DD
:101E40004601880C991CF401EF58F74F118210825B
:101E50008CE0E816F10408F0C8C0F7018827EC5CB4
:101E6000F04F8F4F0C940620540F810F430F980FA3
:101E7000B20FF50FE90FF50FF50FF50F600F6C0FAF
:101E800080958223DCCF3FE03B15D0F0043420F472
:101E900060E0812F0E94E004CD57DF4F88818F37AB
:101EA00079F082E088830CC0043450F460E0812F24
:101EB0000E94E004CD57DF4F88818F3709F01882E8
:101EC000DF91CF911F910F91FF90EF90DF90CF9016
:101ED000BF909F908F900895043490F762E0812F17
:101EE0000E94E004CD57DF4F88818F3711F08BE0DF
:101EF0008883F401EF58F74F81E090E0918380836D
:101F0000DFCF0434E8F6FE01ED57FF4F80818330C8
:101F100021F460E0812F0E94B20461E0812F0E94D1
:101F2000E004CD57DF4F88818F3751F281E0BACF7F
:101F30000C3020F084ED810F833010F661E0812FAA
:101F40000E94E00461E0812F0E94E00460E0812FA4
:101F50000E94B204CD57DF4F88818F3709F4B0CF8C
:101F600083E0A0CF043408F0ABCFCD57DF4F88819A
:101F70008F3711F084E08883F601E653FC4F8081AF
:101F80008F3FA9F090E0FC01EE0FFF1FE80FF91F53
:101F9000E556F64FE0818E2F90E0FC01EE0FFF1F1B
:101FA000E80FF91FE65FF64F808186FD89CF4FEF7E
:101FB0005FEF6FEF7FEF812FDF91CF911F910F9137
:101FC000FF90EF90DF90CF90BF909F908F900C94F8
:101FD000340E1451123008F073CFCD57DF4F888183
:101FE0008F3709F46DCF86E05DCF81E492E0DF9119
:101FF000CF911F910F91FF90EF90DF90CF90BF9006
:102000009F908F900C94280E0F931F93CF93DF9384
:1020100081E080931A0480911904882329F010929A
:1020200019048FEF80930002E9EAF4E0C0EAD4E0FB
:10203000A0E1B4E0119219921D9284E0E23BF8070E
:10204000C9F70AEC13E0C0E0DFEF8AEC8C0F62E026
:1020500070E0803130F08EEF8C0F843428F461E032
:1020600070E08C2F0E94A80EF801D1938F01CF5FF2
:10207000C63459F71092DF041092DE041092C9039F
:102080001092C80310921A04DF91CF911F910F9103
:1020900008954F925F926F927F928F929F92AF922C
:1020A000BF92DF92EF92FF920F931F93CF93DF9334
:1020B000D82E8B01D42FC22F6F3F760709F490C022
:1020C00081E080931005D092320510921105109294
:1020D00033058EEF98E00E9406098C2F0E94BD0701
:1020E0008091C6039091C7038230910538F0880F24
:1020F000991F880F991F05970197F1F70E943905DD
:102100004B015C0180910A0581116CC0CD2FD13249
:1021100008F0C0E281E080930A05809309059FEFF3
:1021200090930805109207059C0F909306058093E5
:10213000E5049091E5048D2D880F892B8093E504AB
:102140008091E404813009F09EC01092E4040E9462
:1021500039054B015C018091E5048093BB008091BF
:102160000C0590910D05A0910E05B0910F05892BDE
:102170008A2B8B2BA1F00E94390540900C055090C2
:102180000D0560900E0570900F05681979098A0990
:102190009B09461657066806790608F444C08091E4
:1021A000BC0083FDD8CF85EC8093BC000E9439052C
:1021B0004B015C0180910A05813009F466C0809171
:1021C00007058C1710F4C0910705A6EEB4E0EFE107
:1021D000F4E080E08C1761F19D9191938F5FFACFCD
:1021E00000E08CCF80910C0590910D05A0910E051B
:1021F000B0910F05892B8A2B8B2B09F483CF0E947A
:10220000390540900C0550900D0560900E057090BA
:102210000F05681979098A099B0946165706680649
:10222000790608F06FCF80910B050E949C07C0E0F3
:1022300010924004C0933F04ED2EF12C8C2F90E0BF
:10224000E816F9060CF043C082E592E00E94280EE1
:10225000D09286030093870306E813E0C8018658EE
:1022600093408E159F05D4F50F5F1F4F90913F044B
:1022700080914004981791F18EEF98E00E94BF087A
:10228000F8018183EBCF85EE8FCF80910C05909183
:102290000D05A0910E05B0910F05892B8A2B8B2B74
:1022A00009F488CF0E94390540900C0550900D0527
:1022B00060900E0570900F05681979098A099B09CD
:1022C000461657066806790608F074CFACCF8E150F
:1022D0009F050CF0BDCF8FE692E0B8CFDE5F6D2F8B
:1022E00070E046E853E087E7DF91CF911F910F91AF
:1022F000FF90EF90DF90BF90AF909F908F907F9076
:102300006F905F904F900C949106EF92FF920F9315
:102310001F93CF93DF938956823108F035C0EA01CD
:10232000162FE82FF0E08827E756FE4E8F4F0C94CB
:102330000620DC13C4114613C4119B13C4112413CB
:10234000C812C411C411C411C411C411AB11C411F9
:102350008C12C4110E13998195FF0AC08BE892E08C
:10236000DF91CF911F910F91FF90EF900C94280E69
:10237000888131E096FB222720F923279871983035
:10238000D1F148F49923A9F0DF91CF911F910F91DA
:10239000FF90EF900895903109F44CC09831A1F767
:1023A0002091000212160CF472C08FEF809300028D
:1023B000EBCF3093100580933205109211051092E7
:1023C000330502E0011778F4FE01E00FF11D618191
:1023D0006795662767958081680F8EEF98E00E9469
:1023E00006090E5FEFCF81E00E94BD0783E191E017
:1023F0000197F1F7C9CF9A814B816630A1F430E89B
:10240000439FB0011124690F711D4D8147954427E9
:1024100047959C81490FDF91CF911F910F91FF90BC
:10242000EF900C944910479544274795490F6FEF5B
:102430007FEFF1CFE0910002E7301CF08BEA92E0F1
:102440008FCF3A819B816630D9F460E8969FA001D6
:102450001124430F511D9D819795992797953C8194
:10246000930FEF5FE093000235E0E302F0011124E7
:10247000EA54FB4F8083528341839383248384CF28
:10248000979599279795930F4FEF5FEFEACF90E0DD
:10249000622F022E000C770B35E0492F50E06417B5
:1024A000750764F0349FF001359FF00D1124EA5454
:1024B000FB4F4081481719F09F5FEFCF90E085E018
:1024C000492F50E0641775071CF19830F8F4FA01B1
:1024D00031968E9FD0018F9FB00D1124AA54BB4F0F
:1024E0003C91849FF001859FF00D1124EA54FB4F2D
:1024F000308311964D915C911297528341831396CC
:102500003C911397338314963C9134839F5FD8CFCB
:1025100021502093000238CF623078F0898160E842
:10252000869F900111248881820F932F911D00971F
:1025300021F09093C7038093C60380911904811101
:1025400023CFC0E08CEE8C0F823028F466E070E080
:102550008C2F0E94A80ECF5FC634A1F781E0809334
:1025600019041092400410923F0410921105109229
:1025700033050E947E078DEA98E090936304809370
:1025800062048EEA98E09093670480936604FCCE20
:10259000653008F4F9CE18818EEF810F843408F08D
:1025A000F3CE0981EA80FB80CC81E12FF0E0E65395
:1025B000FC4F80818033C0F490E0FC01EE0FFF1FE0
:1025C000E80FF91FE556F64FE0818E2F90E0FC01F1
:1025D000EE0FFF1FE80FF91FE65FF64F808186FFC1
:1025E00003C0812F0E94F50D80E8C89FA00111242F
:1025F0004F0D511D90E8E99EB0011124600F711D2F
:10260000812F0E94340E64E070E0812FDF91CF9122
:102610001F910F91FF90EF900C94A80E623008F478
:10262000B3CE8981E0E88E9F900111248881820FCA
:10263000932F911D009729F090930202809301023D
:10264000A3CE81E090E0F8CF623008F49DCE69819E
:1026500070E0123091F08A81F0E88F9FC001112460
:10266000682B792B133049F08B8190E090E4899F9F
:10267000902D88271124682B792B8881DF91CF91A9
:102680001F910F91FF90EF900C94950B80EF0E949B
:1026900060028CE60E946002CEEF8CEC8C0F8031E1
:1026A00008F040C082E00E9460028AE00E9460025E
:1026B00086ED8C0F8330C0F1C43430F484E00E9486
:1026C00060028EE00E9460028EEE8C0F823030F449
:1026D00086E00E94600281E00E9460028FE70E9413
:1026E0006002CF5FC43449F487EFDF91CF911F912F
:1026F0000F91FF90EF900C946002C43470F680E06C
:102700000E94600281E00E9460028BE00E946002F1
:1027100081E00E94600281E00E94600281E00E94EC
:102720006002BBCFCC3020F683E00E94600288E0DC
:102730000E946002C1CF662309F426CEC88180EFD3
:102740000E9460028EE60E9460028C2F0E9460024E
:10275000C63450F6D0E0FE01E55DF74F80810E945F
:102760006002CC0FDD1F8E010F58174FF8018081DA
:102770008F770E946002F801808191819C0120780E
:10278000232B39F0880F892F881F990B8F770E9490
:102790006002CF58D74F888199819C012227307CD5
:1027A000232B09F4A1CF990F880B990F982F881F1D
:1027B0008F770E94600298CF80EF0E9460028AE6C5
:1027C0000E946002CAEC8FE7C03108F48C2F0E948F
:1027D0006002CF5FC031B9F787CF1F920F920FB65B
:1027E0000F9211240BB60F922F933F934F935F9349
:1027F0006F937F938F939F93AF93BF93EF93FF93C9
:1028000084E395E00E946E03FF91EF91BF91AF9139
:102810009F918F917F916F915F914F913F912F91F8
:102820000F900BBE0F900FBE0F901F9018951F9228
:102830000F920FB60F9211240BB60F922F933F9366
:102840004F935F936F937F938F939F93AF93BF93B8
:10285000EF93FF9384E395E00E94F002FF91EF91E4
:10286000BF91AF919F918F917F916F915F914F91A8
:102870003F912F910F900BBE0F900FBE0F901F90A6
:1028800018951F920F920FB60F9211240BB60F924C
:102890002F933F934F935F936F937F938F939F9368
:1028A000AF93BF93EF93FF9381ED95E00E946E038A
:1028B000FF91EF91BF91AF919F918F917F916F9118
:1028C0005F914F913F912F910F900BBE0F900FBED4
:1028D0000F901F9018951F920F920FB60F92112410
:1028E0000BB60F922F933F934F935F936F937F930A
:1028F0008F939F93AF93BF93EF93FF9381ED95E0F9
:102900000E94F002FF91EF91BF91AF919F918F9143
:102910007F916F915F914F913F912F910F900BBEDF
:102920000F900FBE0F901F9018951F920F920FB629
:102930000F9211240BB60F922F933F934F935F93F7
:102940006F937F938F939F93AF93BF93EF93FF9377
:102950008EE696E00E946E03FF91EF91BF91AF91DA
:102960009F918F917F916F915F914F913F912F91A7
:102970000F900BBE0F900FBE0F901F9018951F92D7
:102980000F920FB60F9211240BB60F922F933F9315
:102990004F935F936F937F938F939F93AF93BF9367
:1029A000EF93FF938EE696E00E94F002FF91EF9185
:1029B000BF91AF919F918F917F916F915F914F9157
:1029C0003F912F910F900BBE0F900FBE0F901F9055
:1029D00018951F920F920FB60F9211240BB60F92FB
:1029E0002F933F934F935F936F937F938F939F9317
:1029F000AF93BF93EF93FF938BE097E00E946E033A
:102A0000FF91EF91BF91AF919F918F917F916F91C6
:102A10005F914F913F912F910F900BBE0F900FBE82
:102A20000F901F9018951F920F920FB60F921124BE
:102A30000BB60F922F933F934F935F936F937F93B8
:102A40008F939F93AF93BF93EF93FF938BE097E0A8
:102A50000E94F002FF91EF91BF91AF919F918F91F2
:102A60007F916F915F914F913F912F910F900BBE8E
:102A70000F900FBE0F901F9018951F920F920FB6D8
:102A80000F9211242F933F938F939F93AF93BF93F4
:102A90008091B2049091B304A091B404B091B504B4
:102AA00030918B0423E0230F2D3758F50196A11D9B
:102AB000B11D20938B048093B2049093B304A09330
:102AC000B404B093B50480918C0490918D04A091CE
:102AD0008E04B0918F040196A11DB11D80938C04CA
:102AE00090938D04A0938E04B0938F04BF91AF9107
:102AF0009F918F913F912F910F900FBE0F901F903C
:102B0000189526E8230F0296A11DB11DD2CF1F9262
:102B10000F920FB60F9211240F900FBE0F901F90BF
:102B200018951F920F920FB60F9211240BB60F92A9
:102B30002F933F934F935F936F937F938F939F93C5
:102B4000AF93BF93EF93FF938091B900887F803656
:102B500009F44DC008F040C0883209F4A9C028F536
:102B6000803109F49DC0C8F4882309F4FBC0883083
:102B700009F496C0FF91EF91BF91AF919F918F9112
:102B80007F916F915F914F913F912F910F900BBE6D
:102B90000F900FBE0F901F901895883109F488C0D0
:102BA000803241F78093080514C0803409F49DC039
:102BB00040F48033B9F38833E9F68093080585EC57
:102BC000B0C0803509F485C0883509F496C08834D2
:102BD00089F60E94700ECECF883909F48CC038F582
:102BE000883729F050F4883611F0803719F683E0E1
:102BF00080930A051092880457C0883809F47BC076
:102C0000803919F0803809F0B5CF8091880480327E
:102C100008F071C0E091880481E08E0F80938804F1
:102C20008091BB00F0E0E859FB4F80833DC0803BC2
:102C300039F0E0F4803A09F479C0883A09F09ACF83
:102C400084E080930A051092650410926404E09178
:102C50006204F091630419958091640481110FC09E
:102C600081E0809364041092420409C0803C09F41E
:102C7000A6CF883C09F4A3CF883B09F07BCFE09135
:102C8000650481E08E0F80936504F0E0EE5BFB4FFE
:102C900080818093BB00909165048091640429C079
:102CA0008091E5048093BB0085EC8093BC0062CFEB
:102CB0009091070580910605981758F5E091070552
:102CC00081E08E0F80930705F0E0EA51FB4F808191
:102CD000E9CFE091070581E08E0F80930705809191
:102CE000BB00F0E0EA51FB4F808390910705809193
:102CF00006059817C8F285E8D8CFE091070581E06E
:102D00008E0F809307058091BB00F0E0EA51FB4FE6
:102D100080838091090581115CCF81E08093E40478
:102D200084EA8093BC0010920A0524CF85EC80933E
:102D3000BC0010920A0580918804803230F4E09142
:102D40008804F0E0E859FB4F10826091880470E03D
:102D5000E0916604F091670488E694E0199510927A
:102D6000880408CF1092080534CF1F920F920FB637
:102D70000F9211240BB60F922F933F934F935F93B3
:102D80006F937F938F939F93AF93BF93EF93FF9333
:102D900048E251E064E271E090E080E00E94E309E3
:102DA000FF91EF91BF91AF919F918F917F916F9123
:102DB0005F914F913F912F910F900BBE0F900FBEDF
:102DC0000F901F9018951F920F920FB60F9211241B
:102DD0000BB60F922F933F934F935F936F937F9315
:102DE0008F939F93AF93BF93EF93FF9348EA50E085
:102DF00064EA70E083E090E00E94E309FF91EF91C4
:102E0000BF91AF919F918F917F916F915F914F9102
:102E10003F912F910F900BBE0F900FBE0F901F9000
:102E200018951F920F920FB60F9211240BB60F92A6
:102E30002F933F934F935F936F937F938F939F93C2
:102E4000AF93BF93EF93FF9348E950E064E970E0DC
:102E500082E090E00E94E309FF91EF91BF91AF9172
:102E60009F918F917F916F915F914F913F912F91A2
:102E70000F900BBE0F900FBE0F901F9018951F92D2
:102E80000F920FB60F9211240BB60F922F933F9310
:102E90004F935F936F937F938F939F93AF93BF9362
:102EA000EF93FF9348E850E064E870E081E090E041
:102EB0000E94E309FF91EF91BF91AF919F918F9194
:102EC0007F916F915F914F913F912F910F900BBE2A
:102ED0000F900FBE0F901F9018951092370510920B
:102EE000360588EE93E0A0E0B0E08093380590933B
:102EF0003905A0933A05B0933B052DE032E03093BD
:102F000035052093340545E351E050934105409346
:102F1000400544E351E0509343054093420540E3AC
:102F200051E0509345054093440541E351E05093EF
:102F300047054093460542E351E0509349054093CD
:102F4000480546E351E050934B0540934A051092E3
:102F50004D0510924E0510924F051092500510929B
:102F6000D4051092D3058093D5059093D605A093F0
:102F7000D705B093D8053093D2052093D10545ED00
:102F800050E05093DE054093DD0544ED50E0509352
:102F9000E0054093DF0540ED50E05093E20540939B
:102FA000E10541ED50E05093E4054093E30542ED27
:102FB00050E05093E6054093E50546ED50E0509310
:102FC000E8054093E7051092EA051092EB05109290
:102FD000EC051092ED051092710610927006809328
:102FE000720690937306A0937406B093750630939F
:102FF0006F0620936E064DEC50E050937B06409395
:103000007A064CEC50E050937D0640937C0648ECE9
:1030100050E050937F0640937E0649EC50E0509379
:103020008106409380064AEC50E05093830640931B
:1030300082064EEC50E05093850640938406109231
:103040008706109288061092890610928A061092BE
:103050000E0710920D0780930F0790931007A0930F
:103060001107B093120730930C0720930B0725EC40
:1030700030E0309318072093170724EC30E03093AA
:103080001A072093190720EC30E030931C07209397
:103090001B0721EC30E030931E0720931D0722EC24
:1030A00030E03093200720931F0726EC30E0309368
:1030B00022072093210710922407109225071092CF
:1030C00026071092270728EA37E01092E9071092A6
:1030D000E8073093EC072093EB0740E450E050936F
:1030E000EE074093ED071092EF071092F007109251
:1030F000F2071092F1071092F3071092F507109261
:10310000F4071092F7071092F6071092F907109241
:10311000F8071092FB071092FA071092FD07109221
:10312000FC071092FF071092FE0710920108109200
:1031300000081092070810920608109209081092D1
:10314000080810920B0810920A0810920D081092AD
:103150000C0810921B0810921A081092EA0710929D
:10316000280810922A08109229081092FD0846EEAD
:1031700051E050930F0840930E0840EF51E05093F8
:103180001108409310084AEF51E050931308409300
:10319000120844E052E050931508409314084EE0A2
:1031A00052E0509317084093160848E152E05093BC
:1031B00019084093180842E252E050931D084093CA
:1031C0001C0843E252E050931F0840931E0842E55A
:1031D00057E0509321084093200830930308209330
:1031E00002084CEB52E0509323084093220830939E
:1031F0000508209304082EE232E03093250820933E
:1032000024081092010910920009809302099093FA
:103210000309A0930409B09305098FE192E090930C
:10322000FF088093FE08EBE9F9E02FEF48EB5BE045
:1032300080919A098033B8F491E0980F90939A099D
:10324000808390E0DC01AA0FBB1FA80FB91FA65F07
:10325000B64F12965C934E93119733968AE0EB32F9
:10326000F80731F708952083F8CF789484B5826009
:1032700084BD84B5816084BD85B5826085BD85B51A
:10328000816085BD80916E00816080936E00109298
:103290008100809181008260809381008091810013
:1032A00081608093810080918000816080938000A4
:1032B0008091B10084608093B1008091B000816002
:1032C0008093B00080919100826080939100809102
:1032D0009100816080939100809190008160809343
:1032E00090008091A10082608093A1008091A10054
:1032F00081608093A1008091A00081608093A000F4
:10330000809121018260809321018091210181605F
:103310008093210180912001816080932001809120
:103320007A00846080937A0080917A008260809332
:103330007A0080917A00816080937A0080917A008F
:10334000806880937A001092C10085E180932808FC
:103350008091290890912A080E94AA20C0912808EB
:10336000D0E0CE0101960E940E2090932A0880930F
:103370002908FC01EC0FFD1F108212E0DC011C93F8
:1033800025E011962C93AE014250510961E473E09F
:1033900002960E94332185E99BE090939B048093E1
:1033A0009A048AEC9AE090939904809398048DE9AA
:1033B0009AE0909397048093960488E79DE0909319
:1033C00095048093940488EA9EE0909393048093FC
:1033D000920480E29DE0909391048093900485E8AC
:1033E00091E190939D0480939C0484E090E19093FC
:1033F0009F0480939E04E0911B07F0911C071083AB
:10340000E0911707F09118071082E0911907F091E9
:103410001A078FEC808310922307E0911F07F09129
:10342000200786E08083E0911D07F0911E078081D0
:1034300080618083E0911D07F0911E078081886084
:103440008083E0911D07F0911E0780818068808352
:10345000E0911D07F0911E0780818F7D8083809110
:10346000FD0881114FC061E08DE00E94E00462ED33
:1034700070E080E090E00E945E0561E08DE00E94D7
:10348000B20468E270E080E090E00E945E0560E0D7
:103490008DE00E94B20462ED70E080E090E00E9456
:1034A0005E0561E08DE00E94B20468E270E080E0B9
:1034B00090E00E945E0560E08DE00E94B2046AEF39
:1034C00070E080E090E00E945E05C5E062ED70E093
:1034D00080E090E00E945E0561E08DE00E94B20411
:1034E00068E270E080E090E00E945E0560E08DE0C0
:1034F0000E94B204C15051F76DE770E080E090E0A7
:103500000E945E058BE097E0909327088093260841
:103510009093E9078093E80788EE97E00E943602CF
:1035200088EA97E00E94DE060E940410D5E0DD24C0
:10353000D39402E010E0EE24E394F12C8091A904EE
:10354000882391F1C090A004C2FCE1C2C0E0C3FE98
:1035500006C083E00E948904892B09F0C860C4FE7C
:1035600006C084E00E948904892B09F0C061C5FE71
:1035700006C085E00E948904892B09F0C062C6FE5E
:1035800006C086E00E948904892B09F0C064C7FE4A
:1035900006C087E00E948904892B09F0C06840E0DA
:1035A0006C2F80E00E94350D8091AA04882309F4D5
:1035B0004AC0C090A104CC2DC170C0FE07C088E0F5
:1035C0000E948904C1E0892B09F4C0E0C1FE06C055
:1035D00089E00E948904892B09F0C260C2FE06C0FE
:1035E0008AE00E948904892B09F0C460C3FE06C0EA
:1035F0008BE00E948904892B09F0C860C4FE06C0D4
:103600008CE00E948904892B09F0C061C5FE06C0C8
:103610008DE00E948904892B09F0C062C6FE06C0B5
:103620008EE00E948904892B09F0C064C7FE06C0A1
:103630008FE00E948904892B09F0C06840E06C2F5C
:1036400081E00E94350D8091AB04882309F44AC0C3
:10365000C090A204CC2DC170C0FE07C080E10E94C2
:103660008904C1E0892B09F4C0E0C1FE06C081E1F4
:103670000E948904892B09F0C260C2FE06C082E163
:103680000E948904892B09F0C460C3FE06C083E14F
:103690000E948904892B09F0C860C4FE06C084E139
:1036A0000E948904892B09F0C061C5FE06C085E12E
:1036B0000E948904892B09F0C062C6FE06C086E11B
:1036C0000E948904892B09F0C064C7FE06C087E107
:1036D0000E948904892B09F0C06840E06C2F82E0C9
:1036E0000E94350D8091AC04882309F44AC0C09033
:1036F000A304CC2DC170C0FE07C088E10E948904DC
:10370000C1E0892B09F4C0E0C1FE06C089E10E9436
:103710008904892B09F0C260C2FE06C08AE10E94BA
:103720008904892B09F0C460C3FE06C08BE10E94A6
:103730008904892B09F0C860C4FE06C08CE10E9490
:103740008904892B09F0C061C5FE06C08DE10E9485
:103750008904892B09F0C062C6FE06C08EE10E9472
:103760008904892B09F0C064C7FE06C08FE10E945E
:103770008904892B09F0C06840E06C2F83E00E9427
:10378000350D8091AD04882309F44AC0C090A4048B
:10379000CC2DC170C0FE07C080E20E948904C1E048
:1037A000892B09F4C0E0C1FE06C081E20E948904B1
:1037B000892B09F0C260C2FE06C082E20E94890421
:1037C000892B09F0C460C3FE06C083E20E9489040D
:1037D000892B09F0C860C4FE06C084E20E948904F7
:1037E000892B09F0C061C5FE06C085E20E948904EC
:1037F000892B09F0C062C6FE06C086E20E948904D9
:10380000892B09F0C064C7FE06C087E20E948904C4
:10381000892B09F0C06840E06C2F84E00E94350DD0
:103820008091AE04882309F44AC0C090A504CC2D31
:10383000C170C0FE07C088E20E948904C1E0892BE4
:1038400009F4C0E0C1FE06C089E20E948904892B08
:1038500009F0C260C2FE06C08AE20E948904892B78
:1038600009F0C460C3FE06C08BE20E948904892B64
:1038700009F0C860C4FE06C08CE20E948904892B4E
:1038800009F0C061C5FE06C08DE20E948904892B43
:1038900009F0C062C6FE06C08EE20E948904892B30
:1038A00009F0C064C7FE06C08FE20E948904892B1C
:1038B00009F0C06840E06C2F85E00E94350D8091D2
:1038C000AF04882309F44AC0C090A604CC2DC1706F
:1038D000C0FE07C080E30E948904C1E0892B09F47F
:1038E000C0E0C1FE06C081E30E948904892B09F073
:1038F000C260C2FE06C082E30E948904892B09F0DF
:10390000C460C3FE06C083E30E948904892B09F0CA
:10391000C860C4FE06C084E30E948904892B09F0B4
:10392000C061C5FE06C085E30E948904892B09F0A9
:10393000C062C6FE06C086E30E948904892B09F096
:10394000C064C7FE06C087E30E948904892B09F082
:10395000C06840E06C2F86E00E94350D8091B00475
:10396000882309F44AC0C090A704CC2DC170C0FEC2
:1039700007C088E30E948904C1E0892B09F4C0E0F4
:10398000C1FE06C089E30E948904892B09F0C26048
:10399000C2FE06C08AE30E948904892B09F0C46034
:1039A000C3FE06C08BE30E948904892B09F0C8601E
:1039B000C4FE06C08CE30E948904892B09F0C06113
:1039C000C5FE06C08DE30E948904892B09F0C06200
:1039D000C6FE06C08EE30E948904892B09F0C064EC
:1039E000C7FE06C08FE30E948904892B09F0C068D6
:1039F00040E06C2F87E00E94350D8091B104882350
:103A0000D1F1C090A804CC2DC170C0FE07C080E4E5
:103A10000E948904C1E0892B09F4C0E0C1FE06C000
:103A200081E40E948904892B09F0C260C2FE06C0AD
:103A300082E40E948904892B09F0C460C3FE06C099
:103A400083E40E948904892B09F0C860C4FE06C083
:103A500084E40E948904892B09F0C061C5FE06C078
:103A600085E40E948904892B09F0C06240E06C2F34
:103A700088E00E94350D8091260890912708DC018E
:103A8000ED91FC910084F185E02D1995892B09F4C5
:103A9000D7C18091260890912708DC01ED91FC9117
:103AA0000284F385E02D19959C018F3F980719F347
:103AB000982F8091F307882309F49BC0973F09F062
:103AC00087C01092F307A091EB07B091EC076C91BF
:103AD000613709F440C0693709F064C0E0912008FB
:103AE000F0912108309739F28091F4079091F50711
:103AF00083309105A0F430E020E050E040E070E039
:103B000060E080910208909103081995B4CF82E09B
:103B10000E948904892B09F419CDC4E018CDBD0198
:103B20006D5F7F4F03970E949D02BC016D5F7F4FC9
:103B300080E00E946D02E091EB07F091EC079F019D
:103B40002D5F3F4F428150E0618170E0E09120089D
:103B5000F0912108D6CF80911C0890911D08892BE7
:103B600009F489CFBD016F5F7F4F8091F407909179
:103B7000F50701970E949D02BC016F5F7F4F80E0B7
:103B80000E946D026091EB077091EC076F5F7F4FB1
:103B9000E0911C08F0911D08809108089091090897
:103BA000199569CFE0911E08F0911F08309709F42C
:103BB00062CF9D012F5F3F4F4091F4075091F50771
:103BC0004150510980910A0890910B08199553CFE3
:103BD0006091F4077091F507822F0E946D02809129
:103BE000F4079091F50701969093F5078093F407F9
:103BF00042CF6091F1077091F2076115710509F4E8
:103C0000B1C027FDAFC0615071097093F207609396
:103C1000F107822F0E946D028091F1079091F207C7
:103C2000892B09F028CF8091EF07882309F423CF4F
:103C3000803D09F483C040F4803949F1803C09F4A7
:103C400069C01092EF0717CF843FE1F1853F09F477
:103C50004DC0803EB1F7E0910E08F0910F0830970B
:103C600081F3A091EB07B091EC074C9120E8429FC3
:103C7000C001112411964C91480F592F511D60918C
:103C8000F0078091F6079091F7071995DACFE09148
:103C90001008F09111083097A1F2A091EB07B091B4
:103CA000EC074C9120E8429FC001112411964C91E1
:103CB000480F592F511D6091F0078091F80790919E
:103CC000F907E3CFE0911608F0911708309709F44F
:103CD000B8CFA091EB07B091EC074C9150E0119652
:103CE0006C918091FE079091FF07CFCFE09118086B
:103CF000F0911908309709F4A4CFA091EB07B09187
:103D0000EC074C9150E011966C91809100089091D5
:103D10000108BBCFE0911208F0911308309709F425
:103D200090CFA091EB07B091EC074C9150E06091DF
:103D3000F0078091FA079091FB07A7CFE091140854
:103D4000F0911508309709F47CCFA091EB07B09162
:103D5000EC074C9150E06091F0078091FC07909146
:103D6000FD0793CF903F30F4822F8F708093F00740
:103D7000922F907F903FF1F190F4903CB1F150F48C
:103D8000903909F078CE1093F2070093F1079093E1
:103D9000EF0771CE903D49F1903EA9F36CCE993F6B
:103DA00009F442C028F48CE0890F823060F363CEBE
:103DB0009F3F09F060CE1092F2071092F107109227
:103DC000EF071092F00790E080E02091ED0730912E
:103DD000EE0782179307A8F4E091EB07F091EC0748
:103DE000E80FF91F10820196F0CFF092F207E092EF
:103DF000F107CDCFD092F3071092F5071092F40798
:103E00003ACE1092F3071092F5071092F407E09162
:103E10002408F091250880910C0890910D083097A6
:103E200009F429CE199527CEE0912208F0912308B4
:103E3000309709F420CE8091040890910508F2CFC4
:103E40008FB7F8948090B2049090B304A090B4041B
:103E5000B090B5048FBF8091E0049091E104A091EF
:103E6000E204B091E304409101025091020270E03B
:103E700060E0881A990AAA0ABB0A481559056A051A
:103E80007B0508F051C0840F951FA61FB71F8093B4
:103E9000E0049093E104A093E204B093E30488EA81
:103EA000A82E87E0B82ECAECC031C8F4F501ED5752
:103EB000FF4F8081823099F48091DE049091DF047D
:103EC0000C2E02C0959587950A94E2F780FF07C0F3
:103ED0008C2F0E941C05BC018C2F0E943006CF5FE6
:103EE0008FEFA81AB80AC031F9F68091000287FD59
:103EF0001BC0C0E02C2F30E080910002082E000C87
:103F0000990B8217930784F0D29FF001D39FF00D95
:103F10001124EA54FB4F61817281248143818081A5
:103F20000E944910CF5FE6CF0E94FD0307CB052E0C
:103F300097FB1EF400940E94AE1F57FD07D00E940D
:103F4000C91F07FC03D04EF40C94AE1F509540954A
:103F5000309521953F4F4F4F5F4F08959095809535
:103F6000709561957F4F8F4F9F4F08950E94EB1F73
:103F7000A59F900DB49F900DA49F800D911D1124BD
:103F80000895B7FF0C94B61F0E94B61F821B930BB7
:103F90000895A1E21A2EAA1BBB1BFD010DC0AA1F8A
:103FA000BB1FEE1FFF1FA217B307E407F50720F0A2
:103FB000A21BB30BE40BF50B661F771F881F991F1D
:103FC0001A9469F760957095809590959B01AC0166
:103FD000BD01CF010895A29FB001B39FC001A39F6F
:103FE000700D811D1124911DB29F700D811D112432
:103FF000911D0895991B79E004C0991F961708F048
:10400000961B881F7A95C9F780950895EE0FFF1FBC
:10401000881F8BBF0790F691E02D19940F931F9383
:10402000CF93DF938230910510F482E090E0E0912D
:104030002D0AF0912E0A30E020E0B0E0A0E03097A9
:1040400099F42115310509F44AC0281B390B243095
:104050003105D8F58A819B816115710589F1FB01D4
:1040600093838283FE0111C04081518102811381BB
:1040700048175907E0F04817590799F4109761F06D
:1040800012960C93129713961C933296CF01DF91E0
:10409000CF911F910F91089500932D0A10932E0A2E
:1040A000F4CF2115310551F04217530738F0A9011B
:1040B000DB019A01BD01DF01F801C1CFEF01F9CFAA
:1040C00090932E0A80932D0ACDCFFE01E20FF31FAD
:1040D000819391932250310939832883D7CF20913E
:1040E0002B0A30912C0A232B41F4209105023091A8
:1040F000060230932C0A20932B0A20910302309160
:1041000004022115310541F42DB73EB74091070255
:1041100050910802241B350BE0912B0AF0912C0AD8
:10412000E217F307A0F42E1B3F0B2817390778F08E
:10413000AC014E5F5F4F2417350748F04E0F5F1FED
:1041400050932C0A40932B0A819391939FCFF0E0D8
:10415000E0E09CCFCF93DF930097E9F0FC0132972A
:1041600013821282A0912D0AB0912E0AED0130E047
:1041700020E01097A1F420813181820F931F2091BC
:104180002B0A30912C0A2817390709F061C0F093E7
:104190002C0AE0932B0ADF91CF910895EA01CE1704
:1041A000DF07E8F54A815B819E0141155105B1F7B2
:1041B000E901FB83EA8349915991C40FD51FEC179C
:1041C000FD0761F4808191810296840F951FE901BA
:1041D00099838883828193819B838A83F0E0E0E0E6
:1041E00012968D919C9113970097B9F52D913C9162
:1041F0001197CD010296820F931F20912B0A3091C7
:104200002C0A2817390739F6309751F510922E0AE3
:1042100010922D0AB0932C0AA0932B0ABCCFD38303
:10422000C28340815181840F951FC817D90761F45B
:104230004E5F5F4F88819981480F591F518340839A
:104240008A819B81938382832115310509F0B0CF48
:10425000F0932E0AE0932D0A9ECFFD01DC01C0CF22
:1042600013821282D7CFFB01DC014150504048F04D
:1042700001900D920020C9F701C01D92415050409D
:08428000E0F70895F894FFCF68
:10428800FF130000002F0A8000000000009003C305
:10429800020903DD033A0318032C0300000000069B
:1042A80009D9083509AF08D208BF08B0084D6178A8
:1042B80020736572766F73206174746163686564D6
:1042C80000556E6B6E6F776E2070696E206D6F642F
:1042D80065004932433A20546F6F206D616E792032
:1042E80062797465732072656365697665640049EF
:1042F80032433A20546F6F2066657720627974657F
:10430800732072656365697665640031302D626972
:10431800742061646472657373696E67206E6F746C
:1043280020737570706F7274656400746F6F206DA0
:10433800616E79207175657269657300433A5C55E1
:10434800736572735C73746576655C446F63756DD1
:10435800656E74735C706572736F6E616C5C756E9C
:104368006976657273696461645C73656D6573749D
:104378007265735C73657074696D6F5F73656D6585
:10438800737472655C73697374656D61735F656D71
:1043980062656269646F735C70726163746963619A
:1043A800735C70726F796563746F5F66696E616C58
:1043B8005C5374616E646172644669726D617461A4
:1043C8005C5374616E646172644669726D61746194
:0643D8002E696E6F00006B
:00000001FF
