:100000000C94B4010C94E5010C94E5010C94E50109
:100010000C94E5010C94E5010C94E5010C94E501C8
:100020000C94E5010C9447180C9447180C9447184D
:100030000C94E5010C940E160C94E5010C94E5016A
:100040000C94E5010C94FF190C94E5010C94E50166
:100050000C94E5010C94E5010C94E5010C94FD175A
:100060000C94E5010C94D3170C94A9170C94E5019A
:100070000C94E5010C94E5010C94E5010C94E50168
:100080000C94D1190C94E5010C94E5010C94E50154
:100090000C947F170C9455170C94E5010C9451188F
:1000A0000C94E5010C94E5010C94A3190C94E50162
:1000B0000C94E5010C94E5010C94E5010C94751980
:1000C0000C94E5010C94E5010C94E5010C942B17BC
:1000D0000C9401170C94E5010C94D7160C94AD16F2
:1000E0000C94E5010C9425120C94560B0C94990F6A
:1000F0000C945C040C9424020C94F1010C941902ED
:100100000C94EB0C0C94A6130C94270B0C94DE03AC
:100110000C94AD140C9473090C94E5130C94CE0A52
:100120000C9447040C9474040C94C4020C9478044A
:100130000C94CD0E0C9456040C944B040C944F0468
:100140000C94410F0C9486040C9445150C94FB0EF2
:100150000C943B030C94D50E0C9441040C94280F82
:100160000C94B90E0C94FD150C9423020C941612E9
:100170000C942D1A0C94C9100C94BC150C94E00A24
:100180000C94F10E0C940A0F0C94CC130C94E70110
:100190000C94B60D0C948D110C9467150C942F15BE
:1001A0000C941E0F0C94FB010C94A2110C94D00A19
:1001B0000C94140F0C9464110C9491030C94BD02D4
:1001C0000C940A120C9482040C94D10A0C94A50E7F
:1001D0000C942F020C9466040C9460040C940F028F
:1001E0000C940A030C94AF0E0C94AA0E0C94FA0A09
:1001F0000C946A040C94B9110C9419030C94DD0E40
:100200000C94F30A0C94E9140C947C040C94320FB3
:100210000C94C30E0C9475110C9481110C946E0403
:100220000C9405020C9453040C943C0F0C94BE0CDB
:100230000C942D030C9481040C94D3110C94CF0ACC
:100240000C94E70E00002100240027002A002D0056
:100250003000330001010000040107010A01000021
:1002600020002300260029002C002F00320000016E
:10027000000003010601090100000A0B02090C0D30
:100280000E08070304010000000000000000000049
:10029000000000000000000000000000000000005E
:1002A000000000001211100000000000000000001B
:1002B000000000000000000000000000000001023B
:1002C0001020200808102040102040800201020168
:1002D0000804020101020408102040808040201020
:1002E0000804020180040201804020100804020179
:1002F00008040201010204081020408001020408E1
:100300001020408000002200250028002B002E0035
:100310003100340002010000050108010B01050550
:100320000505070508080808020202020A0A08086B
:100330000404040401010101010101010303030399
:1003400003030303040707070C0C0C0C0C0C0C0C28
:100350000202020206060606060606060B0B0B0B39
:100360000B0B0B0B02002D1A11241FBECFEFD1E295
:10037000DEBFCDBF00E00CBF13E0A0E0B2E0E8E6D6
:10038000F9E400E00BBF02C007900D92A231B10763
:10039000D9F72AE0A2E1B3E001C01D92AB30B20769
:1003A000E1F711E0C4EBD1E000E006C021970109BC
:1003B000802FFE010E947623C33BD10780E008070F
:1003C000A9F70E94F51B0C94B2240C940000862F10
:1003D000E0915604F0915704309711F0BA01199446
:1003E0000895862FE0915404F0915504309711F050
:1003F000BA0119940895862FE0915204F0915304A4
:10040000309711F0BA0119940895862FE0915004A5
:10041000F0915104309711F0BA0119940895862F84
:10042000E0914E04F0914F04309711F0BA01199405
:100430000895862FE0914C04F0914D04309711F00F
:10044000BA01199408950895862F642FE0915804F5
:10045000F0915904309711F0A90119940895E09191
:100460005A04F0915B04309709F019940895CF93E2
:10047000DF93FC01A081B181109701F1EC01ED91B6
:10048000FC9111970190F081E02D69EFCD01199554
:1004900088819981DC01ED91FC910190F081E02D42
:1004A00062E0199588819981DC01ED91FC910190C0
:1004B000F081E02D65E0DF91CF911994DF91CF912C
:1004C0000895A0910208B0910308ED91FC91119755
:1004D0000190F081E02D682FCD0119941F93CF93E7
:1004E000DF93182FEB018091C9079091CA07681715
:1004F000790760F48091C7079091C807C80FD91F8A
:10050000188380E0DF91CF911F910895E091F60765
:10051000F091F707309711F481E0F4CF81E08093F8
:10052000C6078091E2079091E30719958091C9076A
:100530009091CA07C817D90778F7DCCFCF93DF931C
:10054000EC01FB0130E020E0C901880F991F8C17F6
:100550009D0778F44081DB014D93BD011197918196
:10056000979599279795942B9C932F5F3F4F3296A1
:10057000EBCFC901DF91CF910895009721F0805C06
:100580009F4F0C9437020895AF92BF92CF92DF92A3
:10059000EF92FF920F931F93CF93DF936C017B0138
:1005A0008B01040F151FEB015E01AE18BF08C017C9
:1005B000D10759F06991D601ED91FC910190F0813C
:1005C000E02DC6011995892B79F7C501DF91CF91EF
:1005D0001F910F91FF90EF90DF90CF90BF90AF9061
:1005E0000895FC01A089B1898C91A689B78982FD03
:1005F0000FC09C91818D8F5F8F73228D821749F080
:10060000A18DAE0FBF2FB11D5D969C93818F089574
:100610008C910895FC01538D448D252F30E0842F5B
:1006200090E0821B930B541710F0CF96089501971A
:100630000895FC01918D828D981761F0A28DAE0F07
:10064000BF2FB11D5D968C91928D9F5F9F73928F8E
:1006500090E008958FEF9FEF0895FC01918D828DBA
:10066000981731F0828DE80FF11D858D90E0089587
:100670008FEF9FEF0895FC01918D228D892F90E0DF
:10068000805C9F4F821B91098F739927089580E1A9
:1006900095E00E943B0321E0892B09F420E0822FA2
:1006A00008958DEA95E00E943B0321E0892B09F42F
:1006B00020E0822F08958AE496E00E943B0321E027
:1006C000892B09F420E0822F089587EE96E00E949E
:1006D0003B0321E0892B09F420E0822F0895FC01DF
:1006E000A48DA80FB92FB11DA35ABF4F2C91848D93
:1006F00090E001968F739927848FA689B7892C93F0
:10070000A089B1898C91837080648C93938D848D42
:10071000981306C00288F389E02D80818F7D808345
:100720000895EF92FF920F931F93CF93DF93EC0105
:1007300081E0888F9B8D8C8D98131AC0E889F98988
:10074000808185FF15C09FB7F894EE89FF8960838B
:10075000E889F98980818370806480839FBF81E00C
:1007600090E0DF91CF911F910F91FF90EF9008954E
:10077000F62E0B8D10E00F5F1F4F0F731127E02E29
:100780008C8D8E110CC00FB607FCFACFE889F98961
:10079000808185FFF5CFCE010E946F03F1CFEB8DF5
:1007A000EC0FFD2FF11DE35AFF4FF0829FB7F89435
:1007B0000B8FEA89FB8980818062CFCFCF93DF9353
:1007C000EC01888D8823B9F0AA89BB89E889F98969
:1007D0008C9185FD03C0808186FD0DC00FB607FC9E
:1007E000F7CF8C9185FFF2CF808185FFEDCFCE01D1
:1007F0000E946F03E9CFDF91CF91089580E090E0F0
:10080000892B29F00E94650381110E94000080E07D
:1008100090E0892B29F00E945B0381110E94000067
:1008200080E090E0892B29F00E94510381110E9401
:10083000000080E090E0892B29F00E94470381119D
:100840000C94000008958150823108F05AC0E82FBE
:10085000F0E08827E15DFB4F8F4F0C9476234F0427
:100860005304410447044B04810456045C046004AF
:1008700066046A046E047404780481047C048204AF
:100880008604809180008F77809380000895809106
:1008900080008F7DF9CF80918000877FF5CF84B570
:1008A0008F7784BD089584B58F7DFBCF8091B00094
:1008B0008F778093B00008958091B0008F7DF9CF3D
:1008C000809190008F7780939000089580919000A0
:1008D0008F7DF9CF80919000877FF5CF8091A00028
:1008E0008F778093A00008958091A0008F7DF9CF2D
:1008F0008091A000877FF5CF809120018F77809332
:1009000020010895809120018F7DF9CF80912001F1
:10091000877FF5CFCF93DF93282F30E0F901E85898
:10092000FD4F8491F901E254FD4FD491F901E25E4B
:10093000FC4FC491CC23A1F081110E942304EC2F21
:10094000F0E0EE0FFF1FE25AFD4FA591B491EC913C
:10095000ED2381E090E009F480E0DF91CF910895EC
:1009600080E090E0FACF1F93CF93DF93282F30E001
:10097000F901E858FD4F8491F901E254FD4FD491FB
:10098000F901E25EFC4FC491CC23A9F0162F81112E
:100990000E942304EC2FF0E0EE0FFF1FEC5FFC4FF2
:1009A000A591B4918FB7F894EC91111108C0D0952E
:1009B000DE23DC938FBFDF91CF911F910895DE2B53
:1009C000F8CFCF93DF9390E0FC01E254FD4F2491E8
:1009D000825E9C4FFC0184918823C9F090E0880FCF
:1009E000991FFC01EC5BFD4FA591B491FC01EC5FFC
:1009F000FC4FC591D49161110DC09FB7F8948C91B3
:100A0000209582238C938881282328839FBFDF91A0
:100A1000CF910895623051F49FB7F8943C91822FA2
:100A2000809583238C93E8812E2BEFCF8FB7F8949A
:100A3000EC912E2B2C938FBFEACF8F929F92AF9287
:100A4000BF92CF92DF92EF92FF920F931F93CF93BB
:100A50008C0180910302853079F08F3F09F451C0F9
:100A6000CF911F910F91FF90EF90DF90CF90BF90AB
:100A7000AF909F908F900895E4E6F3E0C491C7FD96
:100A8000EFCF61E085E00E94E104CC2319F0C23091
:100A900009F056C14801B12CA12C68E478EE81E040
:100AA00090E0A50198010E94072369017A0181E085
:100AB000C81AD108E108F108CC2309F4D2C1C23028
:100AC00009F0F3C08FEFC816D104E104F10409F076
:100AD0000CF434C164E274EF80E090E0A501980169
:100AE0000E94072369017A0181E0C81AD108E10850
:100AF000F10895E08091B100887F892B8093B10047
:100B0000F3C085E080930302E4E6F3E0C4918C2F08
:100B1000CF3F09F4A5CFC23009F468C060F4CC23FC
:100B200079F1C13009F444C087FD9ACF61E085E0D6
:100B30000E94E104ACCFC43009F499C008F478C035
:100B4000C53091F71092200110922101809121016E
:100B5000886080932101809121018160809321012F
:100B6000E3E2F3E0E491F0E0EE0FFF1FEC5FFC4FF7
:100B700085919491E3ECF2E0E491E093F00481CF6D
:100B800014BC15BC84B5826084BD85B5816085BD0B
:100B9000E3E2F3E0E491F0E0EE0FFF1FEC5FFC4FC7
:100BA00085919491E3ECF2E0E491E093F70469CF4E
:100BB0001092800010928100809181008860809363
:100BC000810080918100816080938100E3E2F3E005
:100BD000E491F0E0EE0FFF1FEC5FFC4F85919491E4
:100BE000E3ECF2E0E491E093F6044BCF1092B00016
:100BF0001092B1008091B00082608093B00080912B
:100C0000B10081608093B100E3E2F3E0E491F0E0B1
:100C1000EE0FFF1FEC5FFC4F859194919093F504CC
:100C20008093F404E3ECF2E0E491E093F30429CF41
:100C300010929000109291008091910088608093B2
:100C4000910080919100816080939100E3E2F3E054
:100C5000E491F0E0EE0FFF1FEC5FFC4F8591949163
:100C6000E3ECF2E0E491E093F204C3E00ACF1092E7
:100C7000A0001092A1008091A10088608093A10043
:100C80008091A10081608093A100E3E2F3E0E49110
:100C9000F0E0EE0FFF1FEC5FFC4F85919491E3ECC9
:100CA000F2E0E491E093F104ECCE8FEFC816D104AA
:100CB000E104F10409F00CF441C062E17AE780E05C
:100CC00090E0A50194010E94072369017A0181E067
:100CD000C81AD108E108F108C111CDC094E085B56A
:100CE000887F892B85BDC0E09801220F331FA8EEB5
:100CF000B3E00E945B2328EE33E040E050E00E9426
:100D00003923C23009F479C00CF04FC0CC2309F468
:100D100065C0C13009F0A4CED0928900C09288008D
:100D2000209308053093090540930A0550930B055D
:100D300080916F00826080936F0092CE94E0DACE53
:100D4000980150E040E060E072E18AE790E00E94A4
:100D5000072369017A0181E0C81AD108E108F10886
:100D6000C13039F480918100887F81608093810057
:100D7000BBCFC33039F480919100887F816080932C
:100D80009100B2CFC43039F48091A100887F816096
:100D90008093A100A9CFC53009F0A6CF8091210191
:100DA000887F8160809321019FCFC43009F447C0C0
:100DB000A4F1C53009F054CED0922901C092280187
:100DC0002093F8043093F9044093FA045093FB0401
:100DD0008091730082608093730042CEC7BC2093E1
:100DE0000C0530930D0540930E0550930F0580912F
:100DF0006E00826080936E0033CEC092B300209369
:100E0000040530930505409306055093070580912E
:100E1000700082608093700023CED0929900C092BF
:100E200098002093000530930105409302055093EC
:100E300003058091710082608093710011CED09281
:100E4000A900C092A8002093FC043093FD044093B5
:100E5000FE045093FF0480917200826080937200C0
:100E6000FFCD93E08FEFC816D104E104F10411F037
:100E70000CF023CF34CF96E03DCE863308F0865376
:100E800020917B00982F9870277F922B90937B0066
:100E90008770806480937C0080917A008064809366
:100EA0007A0080917A0086FDFCCF80917800909145
:100EB000790008953FB7F8948091480490914904CF
:100EC000A0914A04B0914B0426B5A89B05C02F3FC2
:100ED00019F00196A11DB11D3FBFBA2FA92F982F60
:100EE0008827BC01CD01620F711D811D911D42E05B
:100EF000660F771F881F991F4A95D1F708958F9223
:100F00009F92AF92BF92CF92DF92EF92FF926B01CE
:100F10007C010E945A074B015C01C114D104E10419
:100F2000F104B9F00E945A07681979098A099B09E6
:100F3000683E73408105910580F321E0C21AD10813
:100F4000E108F10888EE880E83E0981EA11CB11C10
:100F5000E4CFFF90EF90DF90CF90BF90AF909F9045
:100F60008F9008955F926F927F928F929F92AF922F
:100F7000BF92CF92DF92EF92FF920F931F93CF9386
:100F8000DF935C016901DA015C90232B19F4CC2416
:100F9000CA94DC2C8A013A01660E771ED0E0C0E0CC
:100FA000F12CE12C87E0882E912CF5018081918134
:100FB000D8016C910C2E01C0660F0A94EAF76529DE
:100FC0006F77DC01ED91FC910190F081E02D199596
:100FD000BFEFEB1AFB0AF801608170E0C4018C1BC3
:100FE0009D0B02C0759567958A95E2F7562E21965E
:100FF000C730D10558F1CE14DF0441F1D5018D91F0
:101000009C91652D6F77DC01ED91FC910190F08151
:10101000E02D1995BFEFEB1AFB0A551C5524551C02
:101020002797E6CFEC14FD0408F4BFCFDF91CF91F2
:101030001F910F91FF90EF90DF90CF90BF90AF90F6
:101040009F908F907F906F905F9008950F5F1F4FDC
:101050006016710639F7209749F3EC14FD0430F758
:10106000F5018081918161E070E001C0660FCA9551
:10107000EAF761506521DC01ED91FC910190F0816E
:10108000E02DDF91CF911F910F91FF90EF90DF90B6
:10109000CF90BF90AF909F908F907F906F905F9018
:1010A00019941F93CF93DF931F921F92CDB7DEB792
:1010B000182F7A8369838091C4079091C5070097A0
:1010C000C9F0DC01ED91FC910190F081E02D10312F
:1010D000B8F461157044A0F4612F606E199522E098
:1010E00030E0AE014F5F5F4F62E070E084EC97E06C
:1010F0000E94B2070F900F90DF91CF911F9108953A
:1011000060EF19958091C4079091C507DC01ED91BE
:10111000FC910190F081E02D6FE619958091C40754
:101120009091C507DC01ED91FC910190F081E02DDB
:10113000612F199522E030E0AE014F5F5F4F62E012
:1011400070E084EC97E00E94B2078091C407909110
:10115000C507DC01ED91FC910190F081E02D67EF76
:101160001995C8CFEF92FF920F931F93CF93DF9300
:10117000C82F8091C4079091C5070097C9F17A01E3
:101180008B01DC01ED91FC910190F081E02D60EF8D
:1011900019958091C4079091C507DC01ED91FC91F0
:1011A0000190F081E02D6C2F1995E7010E0D1F1DA8
:1011B000C017D10759F030E020E0AE0161E070E0E7
:1011C00084EC97E00E94B2072196F2CF8091C40789
:1011D0009091C507DC01ED91FC910190F081E02D2B
:1011E00067EFDF91CF911F910F91FF90EF901994CE
:1011F000DF91CF911F910F91FF90EF900895CF92C3
:10120000DF92EF92FF920F931F93CF93DF93FC0136
:10121000E058FF4FE080EE2009F45CC0EC01C05CB8
:10122000DF4FA881B981109709F454C0FC01EF5732
:10123000FF4FC080D180F60111810081ED91FC91BA
:1012400011970190F081E02D60EFCD011995888113
:101250009981DC01ED91FC910190F081E02D69E72D
:10126000199588819981DC01ED91FC910190F081C3
:10127000E02D602F199588819981DC01ED91FC9119
:101280000190F081E02D612F1995F12C01E010E023
:101290000F5F1F4FE016F10659F030E020E0A60185
:1012A000400F511F61E070E0CE010E94B207F0CF05
:1012B00088819981DC01ED91FC910190F081E02D14
:1012C00067EFDF91CF911F910F91FF90EF90DF902B
:1012D000CF901994DF91CF911F910F91FF90EF90D4
:1012E000DF90CF900895009711F00C94FF080895B7
:1012F00020912004260F3327331F21323105ECF4CF
:101300002091C604FC0190E080E0243069F082E086
:101310000895A09120042191AC0142505C4FA40F8C
:10132000B52FB11D2C930196861798F38091200458
:10133000680F6093200480E0089581E00895109282
:10134000C60481E08093C5041092A00461E084E1AA
:101350000E94B30461E085E10E94B304E9EBF0E090
:1013600080818E7F808380818D7F808388E48093DD
:10137000B80085E48093BC000895CF93DF9391E09B
:101380009093FD038823B9F0C091B800D091BA00C2
:101390008091BC008A7B8093BC0060E084E10E9465
:1013A000B30460E085E10E94B3040E949F09D093DA
:1013B000BA00C093B800DF91CF9108958F929F92A9
:1013C000AF92BF92CF92DF92EF92FF920F931F9353
:1013D000CF93DF93D091EF04D13208F0D7C0182F0C
:1013E000C091EE040E945A076B017C018091C604F3
:1013F00081116BC082E08093C6041093C5048FEF07
:101400008093C4041092C304D093C204AEECB4E041
:10141000E2EAF4E080E0D81391C01092A104809138
:10142000A104CC0FC82BC093A1048091A0048130EB
:1014300009F088C01092A0040E945A076B017C0139
:101440008091A1048093BB008091C8049091C9044D
:10145000A091CA04B091CB04892B8A2B8B2BA1F0CD
:101460000E945A070091C8041091C9042091CA042F
:101470003091CB046C197D098E099F090617170757
:101480002807390708F442C08091BC0083FDD8CFFB
:1014900085EC8093BC000E945A076B017C0180910F
:1014A000C604823009F450C08091C4048F3F09F40F
:1014B0006FC08091C404803209F46CC08091C40470
:1014C000803309F469C084E026C08091C8049091FB
:1014D000C904A091CA04B091CB04892B8A2B8B2B11
:1014E00009F484CF0E945A078090C8049090C904E0
:1014F000A090CA04B090CB046C197D098E099F0995
:1015000086169706A806B90608F070CF8091C70422
:101510000E94BD0985E01092CD041092EF04109254
:10152000CC04DF91CF911F910F91FF90EF90DF904E
:10153000CF90BF90AF909F908F9008959D91919381
:101540008F5F69CF85EEA5CF8091C8049091C904C3
:10155000A091CA04B091CB04892B8A2B8B2B09F460
:101560009ECF0E945A070091C8041091C90420918F
:10157000CA043091CB046C197D098E099F090617A6
:1015800017072807390708F08ACFC0CF81E0C3CFFB
:1015900080E0C1CF82E0BFCF83E0BDCF0895089542
:1015A0000895E091FC038091FB03E81730F4F0E02C
:1015B000E552FC4F808190E008958FEF9FEF0895F2
:1015C0009091FC038091FB032FEF3FEF981748F4B5
:1015D000E92FF0E0E552FC4F208130E09F5F9093CF
:1015E000FC03C90108958091FB039091FC03891BC2
:1015F000990B0895CF92DF92EF92FF920F931F9372
:10160000CF93DF937C01CB018A012091CC0422236C
:1016100089F0EB016B01C40ED51ECC15DD0569F018
:101620006991D701ED91FC910190F081E02DC70106
:101630001995F3CF642F0E947809C801DF91CF91EB
:101640001F910F91FF90EF90DF90CF900895CF936F
:10165000DF931F92CDB7DEB769832091CC0422239C
:10166000F9F02091EF04203258F021E030E0FC0145
:101670003383228390E080E00F90DF91CF91089533
:101680008091CD04E82FF0E0E253FB4F99819083E5
:101690008F5F8093CD048093EF0481E090E0ECCFE6
:1016A00061E0CE0101960E947809F7CF90E080E0DA
:1016B0000895DF92EF92FF920F931F93CF93DF93E2
:1016C000EC01D62E7A0189018881803308F067C049
:1016D00061E08D2D0E94E1048881282F30E0F9011E
:1016E000EE0FFF1FE20FF31FEA51F74F9D2D9F737F
:1016F0006081607C692B608320E232E02E193F0913
:1017000037FF02C02D5F3F4F3595279535952795BB
:10171000298320E639E0201B310B37FF02C02D5F03
:101720003F4F35952795359527952A832CE0622FD5
:101730000E946A23829FB001112430E020E0AB01B7
:10174000420F531FFA01EE0FFF1FE40FF51FEA517E
:10175000F74F908196FD16C02F5F3F4F2C3031051B
:1017600071F7813029F51092800082E0809381002A
:101770001092850010928400B19A80916F0082606F
:1017800080936F00E8818E2F90E0FC01EE0FFF1F29
:10179000E80FF91FEA51F74F8081806480838881C8
:1017A000DF91CF911F910F91FF90EF90DF900895FF
:1017B000823061F410929000809391001092950015
:1017C0001092940088BB80937100DCCF833069F461
:1017D0001092A00082E08093A1001092A5001092C8
:1017E000A40089BB80937200CDCF8111CBCF109222
:1017F000200182E0809321011092250110922401A2
:101800008ABB80937300BECFAF92BF92CF92DF921C
:10181000EF92FF920F931F93CF93DF936B017A01A7
:10182000EC01C952DC4F28813CE0389F8001399F90
:10183000100D1124A0907609B12C27FF1FC0FB01C9
:101840001182108288818F5F888388819801280F98
:10185000311D87FD3A95F6012A153B051CF4888158
:101860008C30C4F180819181049680349C4908F4C5
:1018700073C0F60180819181049670C088819801BF
:10188000280F311D87FD3A952A153B05DCF6888126
:10189000A801480F511D87FD5A95FA01EE0FFF1F51
:1018A000E40FF51FEA51F74F808186FFCBCF888187
:1018B000F801E80FF11D87FDFA95CF01EE0FFF1F2C
:1018C000E80FF91FEA51F74F808160E08F730E94A3
:1018D000B304B8CF808191812881A801420F511DA6
:1018E00027FD5A959A01FA01EE0FFF1FE20FF31F31
:1018F000EA51F74F21813281820F931FF7019183C3
:10190000808388819801280F311D87FD3A95F90160
:10191000EE0FFF1FE20FF31FEA51F74F808186FFA2
:1019200022C08881080F111D87FD1A95F801EE0F5E
:10193000FF1FE00FF11FEA51F74F808161E08F73C5
:10194000DF91CF911F910F91FF90EF90DF90CF909B
:10195000BF90AF900C94B30480E49CE9F7019183AD
:1019600080838FEF8883DF91CF911F910F91FF903C
:10197000EF90DF90CF90BF90AF900895CF938031DC
:10198000B0F421E030E0082E02C0220F331F0A9489
:10199000E2F740919A0450919B04672B51F42095F3
:1019A00030952423352330939B0420939A04CF91C0
:1019B0000895242B352B30939B0420939A04909107
:1019C000D6039111F4CFC82F0E943D07BC018C2F84
:1019D000CF910C9451084F925F926F927F928F92A9
:1019E0009F92AF92BF92CF92DF92EF92FF920F93AE
:1019F0001F93CF93DF93893008F0A7C08F5FC82F64
:101A0000CC0FCC0FCC0F4C2EC73410F056E4452E23
:101A1000D62F38EF532E5C0E852C912CC401880FE5
:101A2000991F9C012C57384F5901052DD12CC12CE1
:101A300010E0772473940415C8F58EEF800F84347A
:101A4000F8F4F601E80DF91DE95FF74F9081923047
:101A5000B8F4872D8D2366246394811101C0612C15
:101A60007601EE0CFF1C913089F4172939ECE30E56
:101A7000F11CF501EE0DFF1D862D90E09183808312
:101A8000770C0F5F8FEFC81AD80AD5CF882371F370
:101A9000F701E753FF4FEA0DFB1D8081918101970C
:101AA00029F362E0802F0E94E104E0CF10FF05C01F
:101AB0006D2F6170852D0E94B30411FF06C06D2F3C
:101AC000627089EF8C0F0E94B30412FF06C06D2F65
:101AD00064708AEF8C0F0E94B30413FF06C06D2F51
:101AE00068708BEF8C0F0E94B30414FF06C06D2F3B
:101AF00060718CEF8C0F0E94B30415FF06C06D2F30
:101B000060728DEF8C0F0E94B30416FF06C06D2F1C
:101B100060748EEF8C0F0E94B30417FF16C06D2FF8
:101B200060788FEF8C0FDF91CF911F910F91FF9015
:101B3000EF90DF90CF90BF90AF909F908F907F906D
:101B40006F905F904F900C94B304DF91CF911F91F1
:101B50000F91FF90EF90DF90CF90BF90AF909F904C
:101B60008F907F906F905F904F9008958F929F928B
:101B7000AF92BF92CF92DF92EF92FF920F931F939B
:101B8000CF93DF93EB01863408F098C0082F10E064
:101B9000F801E95FF74F9081933009F49CC09430CD
:101BA00009F08CC08250843408F081C0F801EA57F3
:101BB000FC4FC080D12C7601EE0CFF1C4B01603233
:101BC00082E078070CF03EC0F701EC0DFD1DE958EE
:101BD000F64F8181A8E88A2E912C881A910887FDFA
:101BE0009394880C991C880C991C092C000CAA0849
:101BF000BB08828128E532E0281B310987FD339537
:101C0000220F331F220F331F032E000C440B550BE2
:101C1000281939094A095B09DB01653B710514F094
:101C2000A4EBB0E0B7FF02C0B0E0A0E00E94312317
:101C300024EB30E040E050E00E940723820E931E28
:101C4000A41EB51EF701EC0DFD1DE958F64F2081CD
:101C5000203368F5318188E890E0831B910937FDD6
:101C60009395880F991F880F991F881699067CF005
:101C7000328188E592E0831B910937FD9395880FA7
:101C8000991F880F991F881699060CF4C4010297B2
:101C9000880F991F4FB7F89430E0F901EE0FFF1F3E
:101CA000E20FF31FEA51F74F928381834FBF000F7A
:101CB000111FF801E35BF74FD183C083DF91CF9110
:101CC0001F910F91FF90EF90DF90CF90BF90AF905A
:101CD0009F908F900895F82E8EEF800F8C3020F01B
:101CE00084ED800F833018F761E08F2D0E94E104AE
:101CF000209729F460E08F2D0E94B304D8CFCF3F06
:101D0000D10511F461E0F7CFF801E858FD4FE491F7
:101D1000E150E23108F0B0C0F0E08827ED56F14F15
:101D20008F4F0C947623A50EAA0EAF0EB90EC30EDC
:101D30003C0FCD0ED50EDD0EE70EF10EFB0E0A0F99
:101D4000140F3C0F1E0F280F320F84B5806884BD1E
:101D5000C7BDADCF84B5806284BDC8BDA8CF80911A
:101D60008000806880938000D0938900C0938800B1
:101D70009ECF80918000806280938000D0938B0002
:101D8000C0938A0094CF8091800088608093800007
:101D9000D0938D00C0938C008ACF8091B000806872
:101DA0008093B000C093B30082CF8091B000806276
:101DB0008093B000C093B4007ACF80919000806887
:101DC00080939000D0939900C093980070CF809139
:101DD0009000806280939000D0939B00C0939A0003
:101DE00066CF80919000886080939000D0939D0092
:101DF000C0939C005CCF8091A00080688093A0007D
:101E00008091A0008F7B8093A000D093A900C09305
:101E1000A8004DCF8091A00080628093A000D09355
:101E2000AB00C093AA0043CF8091A000886080934C
:101E3000A000D093AD00C093AC0039CF80912001B9
:101E4000806880932001D0932901C09328012FCF6F
:101E500080912001806280932001D0932B01C09358
:101E60002A0125CF80912001886080932001D093A2
:101E70002D01C0932C011BCFC038D1050CF042CFEF
:101E800039CF9EEF980F943480F4E82FF0E0DF0113
:101E9000A95FB74F9C91913041F4EE0FFF1FE35BB8
:101EA000F74F608371830C94B3040895FF920F93EE
:101EB0001F93CF93DF931F921F92CDB7DEB7082FEA
:101EC00010E0F801E45AFB4F9081F62EF9220453FA
:101ED0001C4F411104C0F80190819F1511F12F2D65
:101EE00030E03A832983A091C407B091C5071097C9
:101EF000B1F0682F6F706069ED91FC9111970190BE
:101F0000F081E02DCD01199522E030E0AE014F5F68
:101F10005F4F62E070E084EC97E00E94B207F80146
:101F2000F0820F900F90DF91CF911F910F91FF9052
:101F300008950F931F93CF93DF93893008F071C0FA
:101F4000282F30E0F901EB59FB4F6083672B09F430
:101F500068C0082F245A3B4FF9011081D82FDD0F9C
:101F6000DD0FDD0F8EEF8D0F843450F4C12FC17063
:101F700010FF07C08D2F0E948A04C1E0892B09F44D
:101F8000C0E08FEF8D0F843448F411FF07C081E06B
:101F90008D0F0E948A04892B09F0C26012FF07C0CE
:101FA00082E08D0F0E948A04892B09F0C46013FF20
:101FB00007C083E08D0F0E948A04892B09F0C86056
:101FC00014FF07C084E08D0F0E948A04892B09F05A
:101FD000C06115FF07C085E08D0F0E948A04892B20
:101FE00009F0C062D034A1F016FF07C086E08D0F63
:101FF0000E948A04892B09F0C064DF3349F017FF7F
:1020000007C087E08D0F0E948A04892B09F0C06801
:1020100041E06C2F802FDF91CF911F910F910C9495
:10202000560FDF91CF911F910F910895A82FB0E027
:10203000AA57BC4F9C91292F30E0F901EE0FFF1FEA
:10204000E20FF31FE958F64FE0812E2F30E0F9013F
:10205000EE0FFF1FE20FF31FEA51F74F80818F7BD6
:10206000808380918403981308C0992319F09150BC
:10207000909384038FEF8C9308958823D9F3E09194
:102080008503EF5FE0938503F0E0EF5EFC4F908304
:10209000F1CFFC0101900020E9F73197BF01681BE7
:1020A000790BAC0181E70C94B208CF93DF93DB018D
:1020B00090918403903378F530918503682F70E018
:1020C000FB01EA57FC4F3323E1F0C32FD0E0CF5E92
:1020D000DC4F88818083315030938503808123E0F9
:1020E000829FC00111248958964F1A161B0674F45A
:1020F000141615065CF49A01AD01DF91CF910C9492
:10210000590B90839F5F90938403E8CF20E639E0DA
:1021100040E252E0F2CF8EE292E0DF91CF910C9458
:10212000491085ED8093BC008091C8049091C9044A
:10213000A091CA04B091CB040796A11DB11D23E064
:10214000B695A795979587952A95D1F72091BC00CC
:1021500024FD03C01092C60408954091C804509114
:10216000C9046091CA047091CB04452B462B472BC0
:1021700069F30097A105B10541F025E32A95F1F730
:1021800000000197A109B109E1CF8091C7040C9427
:10219000BD098F929F92BF92CF92DF92EF92FF92F2
:1021A0000F931F93CF93DF93C82ED12CE601CC570A
:1021B000D84FFE01ED57FF4F90819F3709F4A1C022
:1021C000963061F49091D503992341F06630710502
:1021D00029F01092D5039FEF909300027B01182FF6
:1021E0000EEF080F043408F564307105F1F0F601C4
:1021F000EA57FC4F80818033C0F490E0FC01EE0F81
:10220000FF1FE80FF91FE958F64FE0818E2F90E08D
:10221000FC01EE0FFF1FE80FF91FEA51F74F808115
:1022200086FF03C0812F0E9416105AECB52EB10E06
:102230008FE08B1558F061E070E032E0E316F104B6
:1022400011F070E060E08B2D0E94BE0C0434C8F4E5
:10225000E12FE695E695E695F0E0E45AFB4F208104
:10226000312F377081E090E001C0880F3A95EAF78E
:10227000E114F10421F03BE0E316F10411F5822BA7
:1022800080834601880C991CF401E35BF74F1182AF
:1022900010828CE0E816F10408F0C8C0F701882726
:1022A000EB5AFE4E8F4F0C9476237511A2116411D8
:1022B000B911D31116120A12161216121612811122
:1022C0008D1180958223DCCF3FE03B15D0F00434A4
:1022D00020F460E0812F0E94E104CD57DF4F888118
:1022E0008F3779F082E088830CC0043450F460E0CA
:1022F000812F0E94E104CD57DF4F88818F3709F08D
:102300001882DF91CF911F910F91FF90EF90DF9096
:10231000CF90BF909F908F900895043490F762E023
:10232000812F0E94E104CD57DF4F88818F3711F054
:102330008BE08883F401E35BF74F81E090E09183C9
:102340008083DFCF0434E8F6FE01ED57FF4F808134
:10235000833021F460E0812F0E94B30461E0812F7B
:102360000E94E104CD57DF4F88818F3751F281E021
:10237000BACF0C3020F084ED810F833010F661E08D
:10238000812F0E94E10461E0812F0E94E10460E05E
:10239000812F0E94B304CD57DF4F88818F3709F416
:1023A000B0CF83E0A0CF043408F0ABCFCD57DF4FE0
:1023B00088818F3711F084E08883F601EA57FC4F5B
:1023C00080818F3FA9F090E0FC01EE0FFF1FE80F26
:1023D000F91FE958F64FE0818E2F90E0FC01EE0FD7
:1023E000FF1FE80FF91FEA51F74F808186FD89CF63
:1023F0004FEF5FEF6FEF7FEF812FDF91CF911F9155
:102400000F91FF90EF90DF90CF90BF909F908F90B3
:102410000C9455101451123008F073CFCD57DF4F84
:1024200088818F3709F46DCF86E05DCF82E492E03A
:10243000DF91CF911F910F91FF90EF90DF90CF90A0
:10244000BF909F908F900C9449100F931F93CF9340
:10245000DF9381E08093D6038091D503882329F010
:102460001092D5038FEF80930002E5E6F4E0CCE50F
:10247000D4E0ACECB3E0119219921D9284E0EE36F8
:10248000F807C9F706E813E0C0E0DFEF8AEC8C0F2D
:1024900062E070E0803130F08EEF8C0F843428F4ED
:1024A00061E070E08C2F0E94C910F801D1938F0178
:1024B000CF5FC63459F710929B0410929A04109281
:1024C0008503109284031092D603DF91CF911F9160
:1024D0000F9108954F925F926F927F928F929F9289
:1024E000AF92BF92DF92EF92FF920F931F93CF9321
:1024F000DF93D82E8B01D42FC22F6F3F760709F4BC
:1025000090C081E08093CC04D092EE041092CD0470
:102510001092EF048AED98E00E94270B8C2F0E9406
:10252000DE0980918203909183038230910538F017
:10253000880F991F880F991F05970197F1F70E943F
:102540005A074B015C018091C60481116CC0CD2FEC
:10255000D13208F0C0E281E08093C6048093C504C4
:102560009FEF9093C4041092C3049C0F9093C204F5
:102570008093A1049091A1048D2D880F892B8093C5
:10258000A1048091A004813009F09EC01092A004A3
:102590000E945A074B015C018091A1048093BB000B
:1025A0008091C8049091C904A091CA04B091CB0451
:1025B000892B8A2B8B2BA1F00E945A074090C804CC
:1025C0005090C9046090CA047090CB0468197909CE
:1025D0008A099B09461657066806790608F444C01E
:1025E0008091BC0083FDD8CF85EC8093BC000E9415
:1025F0005A074B015C018091C604813009F466C022
:102600008091C3048C1710F4C091C304A2EAB4E013
:10261000EBEDF3E080E08C1761F19D9191938F5F7A
:10262000FACF00E08CCF8091C8049091C904A091AA
:10263000CA04B091CB04892B8A2B8B2B09F483CF4E
:102640000E945A074090C8045090C9046090CA0480
:102650007090CB04681979098A099B0946165706B8
:102660006806790608F06FCF8091C7040E94BD0903
:10267000C0E01092FC03C093FB03ED2EF12C8C2FD5
:1026800090E0E816F9060CF043C083E592E00E9462
:102690004910D09242030093430302E413E0C801BF
:1026A000825493408E159F05D4F50F5F1F4F909174
:1026B000FB038091FC03981791F18AED98E00E944A
:1026C000E00AF8018183EBCF85EE8FCF8091C804BB
:1026D0009091C904A091CA04B091CB04892B8A2B94
:1026E0008B2B09F488CF0E945A074090C804509061
:1026F000C9046090CA047090CB04681979098A09EA
:102700009B09461657066806790608F074CFACCFC9
:102710008E159F050CF0BDCF80E792E0B8CFDE5F4D
:102720006D2F70E042E453E087E7DF91CF911F9176
:102730000F91FF90EF90DF90BF90AF909F908F90A0
:102740007F906F905F904F900C94B208EF92FF9241
:102750000F931F93CF93DF938956823108F035C0D2
:10276000EA01162FE82FF0E08827E654FC4E8F4F41
:102770000C947623FD15E5136715E513BC15E513D9
:102780004515E914E513E513E513E513E513CC133B
:10279000E513AD14E5132F15998195FF0AC08CE858
:1027A00092E0DF91CF911F910F91FF90EF900C94E9
:1027B0004910888131E096FB222720F92327987160
:1027C0009830D1F148F49923A9F0DF91CF911F916E
:1027D0000F91FF90EF900895903109F44CC098311B
:1027E000A1F72091000212160CF472C08FEF8093B3
:1027F0000002EBCF3093CC048093EE041092CD0412
:102800001092EF0402E0011778F4FE01E00FF11DD1
:1028100061816795662767958081680F8AED98E0EA
:102820000E94270B0E5FEFCF81E00E94DE0983E15B
:1028300091E00197F1F7C9CF9A814B816630A1F4FD
:1028400030E8439FB0011124690F711D4D814795F8
:10285000442747959C81490FDF91CF911F910F919C
:10286000FF90EF900C946A12479544274795490FC3
:102870006FEF7FEFF1CFE0910002E7301CF08CEAC0
:1028800092E08FCF3A819B816630D9F460E8969FC1
:10289000A0011124430F511D9D819795992797956C
:1028A0003C81930FEF5FE093000235E0E302F0011B
:1028B0001124EE58FB4F80835283418393832483FA
:1028C00084CF979599279795930F4FEF5FEFEACFB6
:1028D00090E0622F022E000C770B35E0492F50E07C
:1028E0006417750764F0349FF001359FF00D1124D3
:1028F000EE58FB4F4081481719F09F5FEFCF90E0F3
:1029000085E0492F50E0641775071CF19830F8F402
:10291000FA0131968E9FD0018F9FB00D1124AE58D1
:10292000BB4F3C91849FF001859FF00D1124EE5820
:10293000FB4F308311964D915C91129752834183E6
:1029400013963C911397338314963C9134839F5F85
:10295000D8CF21502093000238CF623078F089819F
:1029600060E8869F900111248881820F932F911D2A
:10297000009721F090938303809382038091D50385
:10298000811123CFC0E08CEE8C0F823028F466E0FA
:1029900070E08C2F0E94C910CF5FC634A1F781E090
:1029A0008093D5031092FC031092FB031092CD0488
:1029B0001092EF040E949F098EEC9AE090931F04FE
:1029C00080931E048FEC9AE090932304809322045A
:1029D000FCCE653008F4F9CE18818EEF810F843477
:1029E00008F0F3CE0981EA80FB80CC81E12FF0E092
:1029F000EA57FC4F80818033C0F490E0FC01EE0F79
:102A0000FF1FE80FF91FE958F64FE0818E2F90E085
:102A1000FC01EE0FFF1FE80FF91FEA51F74F80810D
:102A200086FF03C0812F0E94161080E8C89FA00176
:102A300011244F0D511D90E8E99EB0011124600F43
:102A4000711D812F0E94551064E070E0812FDF918D
:102A5000CF911F910F91FF90EF900C94C9106230AD
:102A600008F4B3CE8981E0E88E9F9001112488811B
:102A7000820F932F911D009729F09093020280936B
:102A80000102A3CE81E090E0F8CF623008F49DCE41
:102A9000698170E0123091F08A81F0E88F9FC00167
:102AA0001124682B792B133049F08B8190E090E44E
:102AB000899F902D88271124682B792B8881DF919D
:102AC000CF911F910F91FF90EF900C94B60D80EF76
:102AD0000E9461028CE60E946102CEEF8CEC8C0FAA
:102AE000803108F040C082E00E9461028AE00E94CA
:102AF000610286ED8C0F8330C0F1C43430F484E081
:102B00000E9461028EE00E9461028EEE8C0F823084
:102B100030F486E00E94610281E00E9461028FE74A
:102B20000E946102CF5FC43449F487EFDF91CF91F7
:102B30001F910F91FF90EF900C946102C43470F6D6
:102B400080E00E94610281E00E9461028BE00E94AD
:102B5000610281E00E94610281E00E94610281E0E5
:102B60000E946102BBCFCC3020F683E00E9461025C
:102B700088E00E946102C1CF662309F426CEC88195
:102B800080EF0E9461028EE60E9461028C2F0E94FB
:102B90006102C63450F6D0E0FE01E95FF74F808154
:102BA0000E946102CC0FDD1F8E01035B174FF801FD
:102BB00080818F770E946102F801808191819C0160
:102BC0002078232B39F0880F892F881F990B8F7756
:102BD0000E946102C35BD74F888199819C012227A3
:102BE000307C232B09F4A1CF990F880B990F982FD4
:102BF000881F8F770E94610298CF80EF0E94610248
:102C00008AE60E946102CAEC8FE7C03108F48C2F7B
:102C10000E946102CF5FC031B9F787CF1F920F9238
:102C20000FB60F9211240BB60F922F933F934F9331
:102C30005F936F937F938F939F93AF93BF93EF9324
:102C4000FF938091040590910505A0910605B09130
:102C50000705892B8A2B8B2BE1F19091F304E091EE
:102C6000F404F091F5048081892780838091040524
:102C700090910505A0910605B09107051816190653
:102C80001A061B069CF48091040590910505A091FD
:102C90000605B09107050197A109B10980930405C4
:102CA00090930505A0930605B0930705FF91EF915A
:102CB000BF91AF919F918F917F916F915F914F9154
:102CC0003F912F910F900BBE0F900FBE0F901F9052
:102CD000189580910302E4E6F3E0E4919FEF90936E
:102CE0000302E230E9F040F4EE2389F0E13091F0A4
:102CF00060E00E94B304DACFE43049F110F1E5302E
:102D0000B9F7909173009D7F90937300F1CF10926B
:102D10006E00EECF90916F009D7F90936F00E8CF93
:102D2000909170009D7F9093700091E09093B0001F
:102D30009091B100987F94609093B1001092B3008D
:102D4000D7CF909171009D7F90937100D1CF9091DA
:102D500072009D7F90937200CBCF1F920F920FB69F
:102D60000F9211240BB60F922F933F934F935F93C3
:102D70006F937F938F939F93AF93BF93EF93FF9343
:102D800080E195E00E946F03FF91EF91BF91AF91B9
:102D90009F918F917F916F915F914F913F912F9173
:102DA0000F900BBE0F900FBE0F901F9018951F92A3
:102DB0000F920FB60F9211240BB60F922F933F93E1
:102DC0004F935F936F937F938F939F93AF93BF9333
:102DD000EF93FF9380E195E00E94F102FF91EF9164
:102DE000BF91AF919F918F917F916F915F914F9123
:102DF0003F912F910F900BBE0F900FBE0F901F9021
:102E000018951F920F920FB60F9211240BB60F92C6
:102E10002F933F934F935F936F937F938F939F93E2
:102E2000AF93BF93EF93FF938DEA95E00E946F03FA
:102E3000FF91EF91BF91AF919F918F917F916F9192
:102E40005F914F913F912F910F900BBE0F900FBE4E
:102E50000F901F9018951F920F920FB60F9211248A
:102E60000BB60F922F933F934F935F936F937F9384
:102E70008F939F93AF93BF93EF93FF938DEA95E06A
:102E80000E94F102FF91EF91BF91AF919F918F91BD
:102E90007F916F915F914F913F912F910F900BBE5A
:102EA0000F900FBE0F901F9018951F920F920FB6A4
:102EB0000F9211240BB60F922F933F934F935F9372
:102EC0006F937F938F939F93AF93BF93EF93FF93F2
:102ED0008AE496E00E946F03FF91EF91BF91AF915A
:102EE0009F918F917F916F915F914F913F912F9122
:102EF0000F900BBE0F900FBE0F901F9018951F9252
:102F00000F920FB60F9211240BB60F922F933F938F
:102F10004F935F936F937F938F939F93AF93BF93E1
:102F2000EF93FF938AE496E00E94F102FF91EF9104
:102F3000BF91AF919F918F917F916F915F914F91D1
:102F40003F912F910F900BBE0F900FBE0F901F90CF
:102F500018951F920F920FB60F9211240BB60F9275
:102F60002F933F934F935F936F937F938F939F9391
:102F7000AF93BF93EF93FF9387EE96E00E946F03AA
:102F8000FF91EF91BF91AF919F918F917F916F9141
:102F90005F914F913F912F910F900BBE0F900FBEFD
:102FA0000F901F9018951F920F920FB60F92112439
:102FB0000BB60F922F933F934F935F936F937F9333
:102FC0008F939F93AF93BF93EF93FF9387EE96E01A
:102FD0000E94F102FF91EF91BF91AF919F918F916C
:102FE0007F916F915F914F913F912F910F900BBE09
:102FF0000F900FBE0F901F9018951F920F920FB653
:103000000F9211242F933F938F939F93AF93BF936E
:1030100080916E0490916F04A0917004B09171043E
:103020003091470423E0230F2D3758F50196A11D59
:10303000B11D2093470480936E0490936F04A09376
:103040007004B09371048091480490914904A09158
:103050004A04B0914B040196A11DB11D8093480410
:1030600090934904A0934A04B0934B04BF91AF914D
:103070009F918F913F912F910F900FBE0F901F90B6
:10308000189526E8230F0296A11DB11DD2CF1F92DD
:103090000F920FB60F9211240F900FBE0F901F903A
:1030A00018951F920F920FB60F9211240BB60F9224
:1030B0002F933F934F935F936F937F938F939F9340
:1030C000AF93BF93EF93FF938091B900887F8036D1
:1030D00009F44DC008F040C0883209F4A9C028F5B1
:1030E000803109F49DC0C8F4882309F4FBC08830FE
:1030F00009F496C0FF91EF91BF91AF919F918F918D
:103100007F916F915F914F913F912F910F900BBEE7
:103110000F900FBE0F901F901895883109F488C04A
:10312000803241F78093C40414C0803409F49DC0F8
:1031300040F48033B9F38833E9F68093C40485EC16
:10314000B0C0803509F485C0883509F496C088344C
:1031500089F60E949110CECF883909F48CC038F5D9
:10316000883729F050F4883611F0803719F683E05B
:103170008093C6041092440457C0883809F47BC079
:10318000803919F0803809F0B5CF8091440480323D
:1031900008F071C0E091440481E08E0F80934404F4
:1031A0008091BB00F0E0EC5DFB4F80833DC0803B35
:1031B00039F0E0F4803A09F479C0883A09F09ACFFE
:1031C00084E08093C6041092210410922004E091C0
:1031D0001E04F0911F0419958091200481110FC0E5
:1031E00081E0809320041092FE0309C0803C09F422
:1031F000A6CF883C09F4A3CF883B09F07BCFE091B0
:10320000210481E08E0F80932104F0E0E250FC4F16
:1032100080818093BB00909121048091200429C07B
:103220008091A1048093BB0085EC8093BC0062CFA9
:103230009091C3048091C204981758F5E091C3049B
:1032400081E08E0F8093C304F0E0EE55FB4F808148
:10325000E9CFE091C30481E08E0F8093C304809195
:10326000BB00F0E0EE55FB4F80839091C30480914A
:10327000C2049817C8F285E8D8CFE091C30481E072
:103280008E0F8093C3048091BB00F0E0EE55FB4F9E
:1032900080838091C50481115CCF81E08093A0047C
:1032A00084EA8093BC001092C60424CF85EC8093FE
:1032B000BC001092C60480914404803230F4E09146
:1032C0004404F0E0EC5DFB4F10826091440470E038
:1032D000E0912204F091230484E294E01995109285
:1032E000440408CF1092C40434CF1F920F920FB63B
:1032F0000F9211240BB60F922F933F934F935F932E
:103300006F937F938F939F93AF93BF93EF93FF93AD
:1033100048E251E064E271E090E080E00E94040C39
:10332000FF91EF91BF91AF919F918F917F916F919D
:103330005F914F913F912F910F900BBE0F900FBE59
:103340000F901F9018951F920F920FB60F92112495
:103350000BB60F922F933F934F935F936F937F938F
:103360008F939F93AF93BF93EF93FF9348EA50E0FF
:1033700064EA70E083E090E00E94040CFF91EF911A
:10338000BF91AF919F918F917F916F915F914F917D
:103390003F912F910F900BBE0F900FBE0F901F907B
:1033A00018951F920F920FB60F9211240BB60F9221
:1033B0002F933F934F935F936F937F938F939F933D
:1033C000AF93BF93EF93FF9348E950E064E970E057
:1033D00082E090E00E94040CFF91EF91BF91AF91C9
:1033E0009F918F917F916F915F914F913F912F911D
:1033F0000F900BBE0F900FBE0F901F9018951F924D
:103400000F920FB60F9211240BB60F922F933F938A
:103410004F935F936F937F938F939F93AF93BF93DC
:10342000EF93FF9348E850E064E870E081E090E0BB
:103430000E94040CFF91EF91BF91AF919F918F91EA
:103440007F916F915F914F913F912F910F900BBEA4
:103450000F900FBE0F901F901895109213051092A9
:10346000120588EE93E0A0E0B0E0809314059093FD
:103470001505A0931605B09317052EE032E03093A2
:1034800011052093100545E351E050931D0540932D
:103490001C0544E351E050931F0540931E0540E393
:1034A00051E0509321054093200541E351E05093B2
:1034B00023054093220542E351E0509325054093B4
:1034C000240546E351E050932705409326051092CA
:1034D000290510922A0510922B0510922C051092A6
:1034E000B0051092AF058093B1059093B205A093FB
:1034F000B305B093B4053093AE052093AD0545ED0B
:1035000050E05093BA054093B90544ED50E0509314
:10351000BC054093BB0540ED50E05093BE05409381
:10352000BD0541ED50E05093C0054093BF0542ED0D
:1035300050E05093C2054093C10546ED50E05093D2
:10354000C4054093C3051092C6051092C70510929A
:10355000C8051092C90510924D0610924C06809332
:103560004E0690934F06A0935006B09351063093A9
:103570004B0620934A064DEC50E05093570640937B
:1035800056064CEC50E0509359064093580648ECD0
:1035900050E050935B0640935A0649EC50E050933C
:1035A0005D0640935C064AEC50E050935F06409302
:1035B0005E064EEC50E05093610640936006109218
:1035C00063061092640610926506109266061092C9
:1035D000EA061092E9068093EB069093EC06A0931E
:1035E000ED06B093EE063093E8062093E70625EC4F
:1035F00030E03093F4062093F30624EC30E030936F
:10360000F6062093F50620EC30E03093F806209380
:10361000F70621EC30E03093FA062093F90622EC0D
:1036200030E03093FC062093FB0626EC30E030932C
:10363000FE062093FD0610920007109201071092DB
:1036400002071092030724E837E01092C507109292
:10365000C4073093C8072093C70740E450E0509355
:10366000CA074093C9071092CB071092CC0710925B
:10367000CE071092CD071092CF071092D10710926B
:10368000D0071092D3071092D2071092D50710924C
:10369000D4071092D7071092D6071092D90710922C
:1036A000D8071092DB071092DA071092DD0710920C
:1036B000DC071092E3071092E2071092E5071092E0
:1036C000E4071092E7071092E6071092E9071092BC
:1036D000E8071092F7071092F6071092C6071092AB
:1036E000040810920608109205081092D90847EEB7
:1036F00051E05093EB074093EA0741EF51E05093BC
:10370000ED074093EC074BEF51E05093EF074093E8
:10371000EE0745E052E05093F1074093F0074FE089
:1037200052E05093F3074093F20749E152E050937F
:10373000F5074093F40743E252E05093F9074093B2
:10374000F80744E252E05093FB074093FA0743E73F
:1037500059E05093FD074093FC073093DF07209317
:10376000DE074DEB52E05093FF074093FE07309386
:10377000E1072093E0072FE232E030930108209325
:1037800000081092DD081092DC088093DE08909308
:10379000DF08A093E008B093E10880E292E0909304
:1037A000DB088093DA08E7E7F9E02FEF48EB5BE00E
:1037B000809176098033B8F491E0980F9093760960
:1037C000808390E0DC01AA0FBB1FA80FB91FAA518C
:1037D000B74F12965C934E93119733968AE0E73079
:1037E000F80731F708952083F8CF789484B5826084
:1037F00084BD84B5816084BD85B5826085BD85B595
:10380000816085BD80916E00816080936E00109212
:10381000810080918100826080938100809181008D
:10382000816080938100809180008160809380001E
:103830008091B10084608093B1008091B00081607C
:103840008093B0008091910082608093910080917C
:1038500091008160809391008091900081608093BD
:1038600090008091A10082608093A1008091A100CE
:1038700081608093A1008091A00081608093A0006E
:1038800080912101826080932101809121018160DA
:10389000809321018091200181608093200180919B
:1038A0007A00846080937A0080917A0082608093AD
:1038B0007A0080917A00816080937A0080917A000A
:1038C000806880937A001092C10085E1809304089B
:1038D00080910508909106080E941A24C09104085E
:1038E000D0E0CE0101960E947E239093060880933B
:1038F0000508FC01EC0FFD1F108212E0DC011C9397
:1039000025E011962C93AE01425051096EEF72E002
:1039100002960E94A32486EB9DE090935704809327
:1039200056048BEE9CE090935504809354048EEBE8
:103930009CE0909353048093520489E99FE0909314
:1039400051048093500489EC90E190934F0480934C
:103950004E0481E49FE090934D0480934C0486EAEA
:1039600093E1909359048093580485E292E19093F7
:103970005B0480935A04E091F706F091F8061083F7
:10398000E091F306F091F4061082E091F506F091D3
:10399000F6068FEC80831092FF06E091FB06F09113
:1039A000FC0686E08083E091F906F091FA068081BA
:1039B00080618083E091F906F091FA068081886049
:1039C0008083E091F906F091FA0680818068808317
:1039D000E091F906F091FA0680818F7D80838091D5
:1039E000D90881114FC061E08DE00E94E10462EDD1
:1039F00070E080E090E00E947F0761E08DE00E942F
:103A0000B30468E270E080E090E00E947F0760E02D
:103A10008DE00E94B30462ED70E080E090E00E94CF
:103A20007F0761E08DE00E94B30468E270E080E00F
:103A300090E00E947F0760E08DE00E94B3046AEF8F
:103A400070E080E090E00E947F07C5E062ED70E0EA
:103A500080E090E00E947F0761E08DE00E94B30467
:103A600068E270E080E090E00E947F0760E08DE017
:103A70000E94B304C15051F76DE770E080E090E020
:103A80000E947F0787EE96E09093030880930208D8
:103A90009093C5078093C40784EC97E00E94370297
:103AA00084E897E00E94FF080E942512D5E0DD24FB
:103AB000D39402E010E0EE24E394F12C80916504AD
:103AC000882391F1C0905C04C2FC91C3C0E0C3FEA6
:103AD00006C083E00E948A04892B09F0C860C4FEF6
:103AE00006C084E00E948A04892B09F0C061C5FEEB
:103AF00006C085E00E948A04892B09F0C062C6FED8
:103B000006C086E00E948A04892B09F0C064C7FEC3
:103B100006C087E00E948A04892B09F0C06840E053
:103B20006C2F80E00E94560F80916604882309F470
:103B30004AC0C0905D04CC2DC170C0FE07C088E0B3
:103B40000E948A04C1E0892B09F4C0E0C1FE06C0CE
:103B500089E00E948A04892B09F0C260C2FE06C077
:103B60008AE00E948A04892B09F0C460C3FE06C063
:103B70008BE00E948A04892B09F0C860C4FE06C04D
:103B80008CE00E948A04892B09F0C061C5FE06C042
:103B90008DE00E948A04892B09F0C062C6FE06C02F
:103BA0008EE00E948A04892B09F0C064C7FE06C01B
:103BB0008FE00E948A04892B09F0C06840E06C2FD6
:103BC00081E00E94560F80916704882309F44AC05F
:103BD000C0905E04CC2DC170C0FE07C080E10E9481
:103BE0008A04C1E0892B09F4C0E0C1FE06C081E16E
:103BF0000E948A04892B09F0C260C2FE06C082E1DD
:103C00000E948A04892B09F0C460C3FE06C083E1C8
:103C10000E948A04892B09F0C860C4FE06C084E1B2
:103C20000E948A04892B09F0C061C5FE06C085E1A7
:103C30000E948A04892B09F0C062C6FE06C086E194
:103C40000E948A04892B09F0C064C7FE06C087E180
:103C50000E948A04892B09F0C06840E06C2F82E042
:103C60000E94560F80916804882309F44AC0C090CE
:103C70005F04CC2DC170C0FE07C088E10E948A0499
:103C8000C1E0892B09F4C0E0C1FE06C089E10E94B1
:103C90008A04892B09F0C260C2FE06C08AE10E9434
:103CA0008A04892B09F0C460C3FE06C08BE10E9420
:103CB0008A04892B09F0C860C4FE06C08CE10E940A
:103CC0008A04892B09F0C061C5FE06C08DE10E94FF
:103CD0008A04892B09F0C062C6FE06C08EE10E94EC
:103CE0008A04892B09F0C064C7FE06C08FE10E94D8
:103CF0008A04892B09F0C06840E06C2F83E00E94A1
:103D0000560F80916904882309F44AC0C09060046A
:103D1000CC2DC170C0FE07C080E20E948A04C1E0C1
:103D2000892B09F4C0E0C1FE06C081E20E948A042A
:103D3000892B09F0C260C2FE06C082E20E948A049A
:103D4000892B09F0C460C3FE06C083E20E948A0486
:103D5000892B09F0C860C4FE06C084E20E948A0470
:103D6000892B09F0C061C5FE06C085E20E948A0465
:103D7000892B09F0C062C6FE06C086E20E948A0452
:103D8000892B09F0C064C7FE06C087E20E948A043E
:103D9000892B09F0C06840E06C2F84E00E94560F28
:103DA00080916A04882309F44AC0C0906104CC2D34
:103DB000C170C0FE07C088E20E948A04C1E0892B5E
:103DC00009F4C0E0C1FE06C089E20E948A04892B82
:103DD00009F0C260C2FE06C08AE20E948A04892BF2
:103DE00009F0C460C3FE06C08BE20E948A04892BDE
:103DF00009F0C860C4FE06C08CE20E948A04892BC8
:103E000009F0C061C5FE06C08DE20E948A04892BBC
:103E100009F0C062C6FE06C08EE20E948A04892BA9
:103E200009F0C064C7FE06C08FE20E948A04892B95
:103E300009F0C06840E06C2F85E00E94560F809129
:103E40006B04882309F44AC0C0906204CC2DC17071
:103E5000C0FE07C080E30E948A04C1E0892B09F4F8
:103E6000C0E0C1FE06C081E30E948A04892B09F0EC
:103E7000C260C2FE06C082E30E948A04892B09F058
:103E8000C460C3FE06C083E30E948A04892B09F044
:103E9000C860C4FE06C084E30E948A04892B09F02E
:103EA000C061C5FE06C085E30E948A04892B09F023
:103EB000C062C6FE06C086E30E948A04892B09F010
:103EC000C064C7FE06C087E30E948A04892B09F0FC
:103ED000C06840E06C2F86E00E94560F80916C0411
:103EE000882309F44AC0C0906304CC2DC170C0FE81
:103EF00007C088E30E948A04C1E0892B09F4C0E06E
:103F0000C1FE06C089E30E948A04892B09F0C260C1
:103F1000C2FE06C08AE30E948A04892B09F0C460AD
:103F2000C3FE06C08BE30E948A04892B09F0C86097
:103F3000C4FE06C08CE30E948A04892B09F0C0618C
:103F4000C5FE06C08DE30E948A04892B09F0C06279
:103F5000C6FE06C08EE30E948A04892B09F0C06465
:103F6000C7FE06C08FE30E948A04892B09F0C0684F
:103F700040E06C2F87E00E94560F80916D048823EB
:103F8000D1F1C0906404CC2DC170C0FE07C080E4A4
:103F90000E948A04C1E0892B09F4C0E0C1FE06C07A
:103FA00081E40E948A04892B09F0C260C2FE06C027
:103FB00082E40E948A04892B09F0C460C3FE06C013
:103FC00083E40E948A04892B09F0C860C4FE06C0FD
:103FD00084E40E948A04892B09F0C061C5FE06C0F2
:103FE00085E40E948A04892B09F0C06240E06C2FAE
:103FF00088E00E94560F84E00E948A04892B09F40D
:10400000AAC087E491E00E941D056CE271E080E0A7
:1040100090E00E947F0787E491E00E941D056CE21A
:1040200071E080E090E00E947F0787E491E00E94C9
:104030001D056CE271E080E090E00E947F0784EB58
:1040400091E00E941D056CE271E080E090E00E942A
:104050007F0786E292E00E941D0564EF71E080E038
:1040600090E00E947F0787E491E00E941D056CE2CA
:1040700071E080E090E00E947F0787E491E00E9479
:104080001D056CE271E080E090E00E947F0787E40C
:1040900091E00E941D056CE271E080E090E00E94DA
:1040A0007F0784EB91E00E941D056CE271E080E0E7
:1040B00090E00E947F0786E292E00E941D0564EF77
:1040C00071E080E090E00E947F0784EB91E00E9425
:1040D0001D056CE271E080E090E00E947F0784EBB8
:1040E00091E00E941D056CE271E080E090E00E948A
:1040F0007F078CE991E00E941D056CE271E080E091
:1041000090E00E947F078CE991E00E941D056CE21F
:1041100071E080E090E00E947F078FE691E00E94CE
:104120001D056CE271E080E090E00E947F078FE661
:1041300091E00E941D056CE271E080E090E00E9439
:104140007F0787E491E00E941D0564EF71E080E045
:1041500090E00E947F078091020890910308DC01A3
:10416000ED91FC910084F185E02D1995892B09F4DE
:10417000D7C18091020890910308DC01ED91FC9178
:104180000284F385E02D19959C018F3F980719F360
:10419000982F8091CF07882309F49BC0973F09F09F
:1041A00087C01092CF07A091C707B091C8076C9144
:1041B000613709F440C0693709F064C0E091FC0739
:1041C000F091FD07309739F28091D0079091D10797
:1041D00083309105A0F430E020E050E040E070E052
:1041E00060E08091DE079091DF071995B4CF82E0FF
:1041F0000E948A04892B09F469CCC4E068CCBD0113
:104200006D5F7F4F03970E949E02BC016D5F7F4FE1
:1042100080E00E946E02E091C707F091C8079F01FD
:104220002D5F3F4F428150E0618170E0E091FC07DB
:10423000F091FD07D6CF8091F8079091F907892B6F
:1042400009F489CFBD016F5F7F4F8091D0079091B6
:10425000D10701970E949E02BC016F5F7F4F80E0F3
:104260000E946E026091C7077091C8076F5F7F4F11
:10427000E091F807F091F9078091E4079091E50744
:10428000199569CFE091FA07F091FB07309709F48F
:1042900062CF9D012F5F3F4F4091D0075091D107D2
:1042A000415051098091E6079091E707199553CF46
:1042B0006091D0077091D107822F0E946E02809189
:1042C000D0079091D10701969093D1078093D007A2
:1042D00042CF6091CD077091CE076115710509F449
:1042E000B1C027FDAFC0615071097093CE076093D4
:1042F000CD07822F0E946E028091CD079091CE074C
:10430000892B09F028CF8091CB07882309F423CF8C
:10431000803D09F483C040F4803949F1803C09F4C0
:1043200069C01092CB0717CF843FE1F1853F09F4B4
:104330004DC0803EB1F7E091EA07F091EB0730976E
:1043400081F3A091C707B091C8074C9120E8429F24
:10435000C001112411964C91480F592F511D6091A5
:10436000CC078091D2079091D3071995DACFE091CD
:10437000EC07F091ED073097A1F2A091C707B0913B
:10438000C8074C9120E8429FC001112411964C911E
:10439000480F592F511D6091CC078091D4079091FF
:1043A000D507E3CFE091F207F091F307309709F4D6
:1043B000B8CFA091C707B091C8074C9150E01196B3
:1043C0006C918091DA079091DB07CFCFE091F407F1
:1043D000F091F507309709F4A4CFA091C707B091E9
:1043E000C8074C9150E011966C918091DC07909138
:1043F000DD07BBCFE091EE07F091EF07309709F4AE
:1044000090CFA091C707B091C8074C9150E0609140
:10441000CC078091D6079091D707A7CFE091F007FE
:10442000F091F107309709F47CCFA091C707B091C4
:10443000C8074C9150E06091CC078091D8079091CB
:10444000D90793CF903F30F4822F8F708093CC07A1
:10445000922F907F903FF1F190F4903CB1F150F4A5
:10446000903909F078CE1093CE070093CD07909342
:10447000CB0771CE903D49F1903EA9F36CCE993FA8
:1044800009F442C028F48CE0890F823060F363CED7
:104490009F3F09F060CE1092CE071092CD07109288
:1044A000CB071092CC0790E080E02091C9073091B3
:1044B000CA0782179307A8F4E091C707F091C807CD
:1044C000E80FF91F10820196F0CFF092CE07E0922C
:1044D000CD07CDCFD092CF071092D1071092D00741
:1044E0003ACE1092CF071092D1071092D007E091E8
:1044F0000008F09101088091E8079091E907309752
:1045000009F429CE199527CEE091FE07F091FF0717
:10451000309709F420CE8091E0079091E107F2CF27
:104520008FB7F89480906E0490906F04A090700400
:10453000B09071048FBF80919C0490919D04A091D4
:104540009E04B0919F04409101025091020270E0DC
:1045500060E0881A990AAA0ABB0A481559056A0533
:104560007B0508F051C0840F951FA61FB71F8093CD
:104570009C0490939D04A0939E04B0939F0484E8B0
:10458000A82E87E0B82ECAECC031C8F4F501ED576B
:10459000FF4F8081823099F480919A0490919B041E
:1045A0000C2E02C0959587950A94E2F780FF07C00C
:1045B0008C2F0E943D07BC018C2F0E945108CF5FB9
:1045C0008FEFA81AB80AC031F9F68091000287FD72
:1045D0001BC0C0E02C2F30E080910002082E000CA0
:1045E000990B8217930784F0D29FF001D39FF00DAF
:1045F0001124EE58FB4F61817281248143818081B7
:104600000E946A12CF5FE6CF0E94FE0357CA052EB2
:1046100097FB1EF400940E941E2357FD07D00E94B2
:10462000392307FC03D04EF40C941E23509540957B
:10463000309521953F4F4F4F5F4F0895909580954E
:10464000709561957F4F8F4F9F4F08950E945B2318
:10465000A59F900DB49F900DA49F800D911D1124D6
:104660000895B7FF0C9426230E942623821B930BE8
:104670000895A1E21A2EAA1BBB1BFD010DC0AA1FA3
:10468000BB1FEE1FFF1FA217B307E407F50720F0BB
:10469000A21BB30BE40BF50B661F771F881F991F36
:1046A0001A9469F760957095809590959B01AC017F
:1046B000BD01CF010895A29FB001B39FC001A39F88
:1046C000700D811D1124911DB29F700D811D11244B
:1046D000911D0895991B79E004C0991F961708F061
:1046E000961B881F7A95C9F780950895EE0FFF1FD6
:1046F000881F8BBF0790F691E02D19940F931F939D
:10470000CF93DF938230910510F482E090E0E09146
:10471000090AF0910A0A30E020E0B0E0A0E030970A
:1047200099F42115310509F44AC0281B390B2430AE
:104730003105D8F58A819B816115710589F1FB01ED
:1047400093838283FE0111C04081518102811381D4
:1047500048175907E0F04817590799F4109761F086
:1047600012960C93129713961C933296CF01DF91F9
:10477000CF911F910F9108950093090A10930A0A8F
:10478000F4CF2115310551F04217530738F0A90134
:10479000DB019A01BD01DF01F801C1CFEF01F9CFC3
:1047A00090930A0A8093090ACDCFFE01E20FF31F0E
:1047B000819391932250310939832883D7CF209157
:1047C000070A3091080A232B41F420910602309108
:1047D00007023093080A2093070A209104023091BF
:1047E00005022115310541F42DB73EB7409108026D
:1047F00050910902241B350BE091070AF091080A39
:10480000E217F307A0F42E1B3F0B2817390778F0A7
:10481000AC014E5F5F4F2417350748F04E0F5F1F06
:104820005093080A4093070A819391939FCFF0E039
:10483000E0E09CCFCF93DF930097E9F0FC01329743
:1048400013821282A091090AB0910A0AED0130E0A8
:1048500020E01097A1F420813181820F931F2091D5
:10486000070A3091080A2817390709F061C0F09348
:10487000080AE093070ADF91CF910895EA01CE1765
:10488000DF07E8F54A815B819E0141155105B1F7CB
:10489000E901FB83EA8349915991C40FD51FEC17B5
:1048A000FD0761F4808191810296840F951FE901D3
:1048B00099838883828193819B838A83F0E0E0E0FF
:1048C00012968D919C9113970097B9F52D913C917B
:1048D0001197CD010296820F931F2091070A309104
:1048E000080A2817390739F6309751F510920A0A45
:1048F0001092090AB093080AA093070ABCCFD38389
:10490000C28340815181840F951FC817D90761F474
:104910004E5F5F4F88819981480F591F51834083B3
:104920008A819B81938382832115310509F0B0CF61
:10493000F0930A0AE093090A9ECFFD01DC01C0CF83
:1049400013821282D7CFFB01DC014150504048F066
:1049500001900D920020C9F701C01D9241505040B6
:08496000E0F70895F894FFCF81
:10496800FF1300FF00000B0A800000000000910305
:10497800C4020A03DE033B0319032D0300000000F1
:10498800270BFA0A560BD00AF30AE00AD10A4D613E
:104998007820736572766F732061747461636865DB
:1049A8006400556E6B6E6F776E2070696E206D6F48
:1049B8006465004932433A20546F6F206D616E7907
:1049C8002062797465732072656365697665640031
:1049D8004932433A20546F6F2066657720627974B4
:1049E80065732072656365697665640031302D6290
:1049F80069742061646472657373696E67206E6F91
:104A08007420737570706F7274656400746F6F20B2
:104A18006D616E79207175657269657300433A5CE2
:104A280055736572735C73636F72645C4170704434
:104A38006174615C4C6F63616C5C54656D705C6142
:104A4800726475696E6F5F6D6F6469666965645FCE
:104A5800736B657463685F3335343532375C537410
:104A6800616E646172644669726D6174612E696E0B
:024A78006F00CD
:00000001FF
